:100000000204D6BC000BBE0029EF8DF084FFADF0DA
:1000100022E4CCF875F008EF2FFFEE33FEEC33FC52
:10002000EE9DEC984005FCEE9DFE0FD5F0E9E4CE88
:10003000FD22EDF8F5F0EE8420D21CFEADF075F057
:1000400008EF2FFFED33FD4007985006D5F0F22260
:08005000C398FD0FD5F0EA2270
:1000630002043D1206BC12075C1206761205F58FD8
:10007300241206991202A1300303020256E54870C6
:1000830013E50A75F00A84F53FE50A75F00A8485DD
:10009300F0408024E54864017034E50820E013E56E
:1000A3000A75F00A84F53FE50A75F00A8485F04085
:1000B3008006753F15754015754114E50975F00AFD
:1000C30084F542E50975F00A8485F0438038E548F4
:1000D30064027048E50820E013E50975F00A84F529
:1000E30042E50975F00A8485F0438006754215756B
:1000F3004315754114E50A75F00A84F540E50A7560
:10010300F00A8485F041754414E50875F00A84F516
:1001130045E50875F00A8485F046804AE54864039E
:100123007044E50820E01175F00A84F545E508758B
:10013300F00A8485F04680067545157546157541A8
:1001430014E50975F00A84F542E50975F00A84851A
:10015300F043754414E50A75F00A84F53FE50A7522
:10016300F00A8485F040E5497013E52375F00A84AD
:10017300F53FE52375F00A8485F0408024E5496462
:10018300017034E50820E013E52375F00A84F53F98
:10019300E52375F00A8485F0408006753F157540A8
:1001A30015754114E52275F00A84F542E52275F0D0
:1001B3000A8485F0438038E54964027048E50820E5
:1001C300E013E52275F00A84F542E52275F00A840E
:1001D30085F0438006754215754315754114E52373
:1001E30075F00A84F540E52375F00A8485F04175BE
:1001F3004414E52175F00A84F545E52175F00A8478
:1002030085F0468074E5496403706EE50820E013C9
:10021300E52175F00A84F545E52175F00A8485F03A
:10022300468006754515754615754114E52275F02A
:100233000A84F542E52275F00A8485F04375441477
:10024300E52375F00A84F53FE52375F00A8485F00C
:10025300408026300323753F15754015754115758C
:100263004215754315E52475F00A84F544E52475B4
:10027300F00A8485F045754616E508B52113E509AE
:10028300B5220EE50AB52309D204E4F525F5268047
:1002930002C20420000302006FC20402006F20B0F8
:1002A3003512073020B027D200E5487005754801A4
:1002B300801CE548B401057548028012E548B40284
:1002C300057548038008E548B40303E4F54830B0F6
:1002D300030203AD80F820B13512073020B127D2D5
:1002E30000E5497005754901801CE549B4010575B0
:1002F30049028012E549B402057549038008E549BE
:10030300B40303E4F54930B1030203AD80F830B21E
:100313000302039A12073020B278D200200373E558
:1003230048B4010EE50AC394184003E4F50A050A2C
:100333008024E548B4020EE509C3943C4003E4F588
:100343000905098011E548B40311E508C3943C404D
:1003530003E4F50805081206768037E549B4010E73
:10036300E523C394184003E4F52305238024E549DA
:10037300B4020EE522C3943C4003E4F52205228037
:1003830011E549B4030CE521C3943C4003E4F52192
:10039300052120B21580FB20B31012073020B30AC9
:1003A300D201740844007002D20320010302043C0A
:1003B300D392B3C201D200200378E548B4010EE51D
:1003C3000AD394005003750A18150A8024E548B42B
:1003D300020EE509D39400500375093C15098011F9
:1003E300E548B40311E508D39400500375083C15A0
:1003F300081206768037E549B4010EE523D394004D
:10040300500375231815238024E549B4020EE52211
:10041300D39400500375223C15228011E549B4039F
:100423000CE521D39400500375213C1521200302D0
:10043300D20320B304C20380F922C0E0C0F0C0D0CD
:1004430075D000C000C004C005C006C00743A0E0CB
:100453007580FF43A0C053A0DFAF477401A807080E
:100463008002C333D8FCF58043A0E0743F2547F8EE
:10047300E62427F8E6F5800547E547B40803754702
:10048300000526E52670020525300436AE25FF7CDF
:10049300007DC8120003ED4C701820020AD20275C9
:1004A300A0807580FE800B300208C20275A08075A3
:1004B30080FFE526B4880BE525B413067525007582
:1004C3002600D007D006D005D004D000D0D0D0F07D
:1004D300D0E032787FE4F6D8FD75814902051D022C
:1004E3000066E493A3F8E493A34003F68001F208C3
:1004F300DFF48029E493A3F85407240CC8C333C45E
:10050300540F4420C8834004F456800146F6DFE4C8
:10051300800B0102040810204080900562E47E01F4
:100523009360BCA3FF543F30E509541FFEE493A33B
:1005330060010ECF54C025E060A840B8E493A3FA4D
:10054300E493A3F8E493A3C8C582C8CAC583CAF0D9
:10055300A3C8C582C8CAC583CADFE9DEE780BE0770
:1005630008323B1700000000013EFF1727C0F9A423
:10057300B0999282F8809040792430191202780061
:1005830010BFFFC6083F151515151515151501479D
:10059300000321000000012400C103C10001480041
:1005A300014900C10402250000C102C10100E4FDAC
:1005B300C29300C29700D29300120749E4FFC29787
:1005C300EDC313FD30A303430580D2970FBF08EE9D
:1005D300C29300C293C29700D29700C2A300D2A3D2
:1005E30000EDC4540FFFED540FFEEF75F00AA42E77
:1005F300FF2212062A7FCC1206DE7F441206DE7F1C
:10060300147E0012070012062A7FCC1206DE7FBE7C
:100613001206DE120716A907120716EFC454F0FFDD
:10062300E9C4540F4FFF22C205D2947F0C7E0012FF
:100633000700C2947F507E00120700D2947F0A7E87
:1006430000120700A29492051206FCA20522C2938F
:1006530000C29700D29300120749ED75F00A84FF98
:10066300ED75F00A84EFC454F045F0FDFF1207491D
:10067300C293227C80E4FD7F8E120651E4FBAF041B
:1006830074082BF8E6FD1206510C0C0BBB08EF7D2A
:10069300807F8E0206517C81E4FD7F8E120651E439
:1006A300FBAF041205B174082BF8A6070C0C0BBBA7
:1006B30008EF7D807F8E02065143A0A053A0BFE4C4
:1006C300F58043A08053A09F7580FF43A0C053A033
:1006D300DF7580FF43A0E07580FF22A907E4FBC21A
:1006E30094E91392941206FCD294E9C313F90BBB59
:1006F30008ED7F057E000207007F057E00EF1FAA3D
:100703000670011E4A600BE4FDEDC3940850EE0D24
:1007130080F722E4FBC294ECC313FCD2943094031D
:100723004304801206FC0BBB08EBAF04227F057E5B
:1007330000E4FDEDC39FE49E500B7C0C7BA9DBFE24
:10074300DCFC0D80EE22E4FEC297EF1392A3EFC30D
:1007530013FFD2970EBE08F022438E0475D720757F
:0B076300D6D1438E1043AF04D2AF226A
:00000001FF
