:100000000210F0E4FED2A00000000000EF25E0FFA7
:1000100030A1034401FFC2A000000000000EEEB4B6
:1000200008E3220214DE78327419F2087415F2081B
:10003000F2087401F2087415F208F2781FE2FA0867
:10004000E2FB7C007D0AFFAE021205BD7838EFF2BC
:100050007C007D0AAF03AE021205BD7839EDF222B5
:10006300021026EC4D6011E8497017ED33EC3304B0
:10007300600DE4FCFFFEFD22E933E8330470F8026F
:1000830002B612028158046009E4CC248150062888
:1000930050090202C02840030202BDC0E0EB4A70CF
:1000A30044B98006D0E0FB0202ACEF4E701CBD8069
:1000B30008EBFFEAFEE9FD80EBE98DF0A4FEE5F035
:1000C30002014FE9CDF9EAFEEBFFEF89F0A4FCE56D
:1000D300F0CE89F0A42EFFE435F0CD89F0A42DFEF7
:1000E300E435F08067EF4E7005BD80D780C3EF8B9A
:1000F300F0A4ACF0EE8BF0A42CFCE435F0F8EF8A1E
:10010300F0A42CE5F038FCE433CB8DF0A42CFCE513
:10011300F03BF8EE8AF0A42CFCE5F038F8E433CF9A
:1001230089F0A42CFCE5F038CF3400CE89F0A42F5D
:10013300FFE5F03EFEE433C98DF0A42EFEE5F03971
:10014300CD8AF0A42FFFE5F03EFEE43DFD33D0E081
:10015300FB50070BBB000F0202C0EC2CFCEF33FF7C
:10016300EE33FEED33FD0202980202C0EC5D046043
:1001730005E8590470030202B6120281580460F6BE
:10018300EC4860F2EC7004FDFEFF22C860DB2481C2
:10019300C85009C398600250060202BD9850CAF5C0
:1001A30082E9294B4A7005AB820202AC75F0007CF0
:1001B3001A7880C3EF9BEE9AED99400DC3EF9BFF36
:1001C300EE9AFEED99FDE842F0DC23ACF0D0E0FFBF
:1001D300D0E0FED0E0FDAB8220E7101BEB60BAEC71
:1001E3002CFCEF33FFEE33FEED33FD020298E80300
:1001F300F830E705C0F075F000EF2FFFEE33FEEDAA
:1002030033FD40B830E7C280AA75F020800E75F048
:1002130010800575F0087D007E007F003392D53095
:10022300D503120612EC334010EF33FFEE33FEED2D
:1002330033FDEC33FCD5F0ED22E5F0247EA2D5139B
:10024300CC92E7CDCEFF22EDD2E7CD33EC3392D57E
:1002530024814006E4FFFEFDFC22FCE4CFCECDCC9E
:1002630024E0501174FF80EDC3CC13CCCD13CDCE5D
:1002730013CECF13CF0470F030D5DE020612E9D2CD
:10028300E7C933E833F892D5EDD2E7CD33EC33FC4D
:100293005002B2D522EC30E7100FBF000C0EBE00A7
:1002A300080DBD00040BEB6014A2D5EB13FCED921B
:1002B300E7FD2274FFFCFDFEFF22E480F8A2D57463
:1002C300FF13FC7D80E480EFF920E72824F9500335
:1002D3007907E4F42402FB18DBFDE224FB5014E964
:1002E300600DE4F218E204F2B40A08E4F2D9F574FA
:1002F30001F20A22C2D522ED33EC3392D5FA602AF9
:10030300B4FF33EDC2E77BFF60067A03791FE42273
:100313007A03792820D5047A037923224E614E008B
:100323002B494E46002D494E4600E47A08F208DA7E
:10033300FC7B00740722E8C0E0ECC0E0EDC0E0EE17
:10034300C0E0EFC0E0EA75F010A4CAABF075F04D61
:10035300A42BFBE435F0FCEA2410FAEB34C5FBECE8
:1003630034D9FCEDC2E7FF75F056A4F42411C5F0AF
:10037300F434C58FF0A42AE5F03BE43CF220E71403
:10038300120525D0E0FFD0E0FED0E0FDD0E0FC1266
:10039300016F8014F404120525D0E0FFD0E0FED0F5
:1003A300E0FDD0E0FC120066D0E0F8E2FAEDD2E71F
:1003B300CD33EC332482FBE4C3CF33CFCE33CECD66
:1003C30033CD33DBF37B0775F00A846004F2081B3B
:1003D3000AE5F0F2088FF0740AA4FFACF08EF07413
:1003E3000AA42CFEACF050010C8DF0740AA42CFD71
:1003F300E435F0F208DBDE7407220202B6E864801B
:10040300F8E933E83360110460F0ED33EC3370093D
:10041300E8FCE9FDEAFEEBFF220460DED3EB9FEA92
:100423009EE99DE8C2E78CF0C2F795F0400CE8CC5A
:10043300F8E9CDF9EACEFAEBCFFB12028185D0F0D1
:100443005804700320D5B3E80470075002B2D502F4
:1004530002C092D5EC0460F7E4CCC0E0C398F86026
:100463003B94186008400DD0E0FB020298E4FBFACD
:10047300C9FC8028E830E406E4C9FBE4CAFCE830A0
:10048300E305E4C9CACBFCE854076010F8C3E913D9
:10049300F9EA13FAEB13FBEC13FCD8F130F52FC395
:1004A300E49CFCEF9BFFEE9AFEED99FDD0E0FBEFA1
:1004B3004E4D4C701222DB030202BDEC2CFCEF33D9
:1004C300FFEE33FEED33FDED30E7EB020298EF2B49
:1004D300FFEE3AFEED39FDD0E0FB50130BBB0003FA
:1004E3000202C0ED13FDEE13FEEF13FFEC13FC024B
:1004F30002983F8000004120000042C80000447A77
:100503000000461C400047C35000497424004B18A8
:1005130096804CBEBC205A0E1BCA6753C21C749DE6
:10052300C5AEFB60065407601C2323120553EB542E
:1005330038600912053F12054E120066ECF8EDF91A
:10054300EEFAEFCB22EB12054E80F1543803241C54
:100553009004F5FE93FC0EEE93FD0EEE930ECE93F8
:10056300FF22BB010689828A83E0225002E722BB75
:10057300FE02E32289828A83E49322BB010CE58293
:1005830029F582E5833AF583E0225006E92582F8CE
:10059300E622BBFE06E92582F8E222E58229F582FE
:1005A300E5833AF583E49322BB010689828A83F0CB
:1005B300225002F722BBFE01F322BC000BBE00292E
:1005C300EF8DF084FFADF022E4CCF875F008EF2F47
:1005D300FFEE33FEEC33FCEE9DEC984005FCEE9D04
:1005E300FE0FD5F0E9E4CEFD22EDF8F5F0EE842020
:1005F300D21CFEADF075F008EF2FFFED33FD400781
:10060300985006D5F0F222C398FD0FD5F0EA22C325
:10061300E49FFFE49EFEE49DFDE49CFC22ECF208D3
:10062300EDF208EEF208EFF222FAE2FB0808E2F933
:1006330025F0F218E2CA3AF222EBF208EAF208E9EC
:10064300F222D083D082F8E4937012740193700D78
:10065300A3A393F8740193F5828883E473740293DC
:100663006860EFA3A3A380DFE508244CF8E2050844
:10067300227849300702784CE475F00112062C0207
:1006830005652000EB7F2ED2008018EF540F2490D5
:10069300D43440D4FF30040BEF24BFB41A0050030A
:1006A3002461FFE50960021509050CE50C700205DC
:1006B3000B30070D7849E475F00112062CEF0205A3
:1006C300AB0215567403D2078003E4C207F508781A
:1006D3004912063CE4F509F50BF50CE50960077FC3
:1006E300201206A680F5750AFFC201C200C202C22B
:1006F30003C205C206C208120674FF700D30070557
:100703007F001206B7AF0CAE0B22B4255FC2D5C271
:1007130004120674FF24D0B40A00501A75F00A7844
:100723000930D50508B6FF0106C6A426F620D50470
:100733007002D20380D924CFB41A00EF5004C2E56B
:10074300D2040209A3D20180C6D20080C0D20280A3
:10075300BCD2D580BAD20580B47F201206A620026F
:10076300077401B5090040F112066BFF1206A602D9
:1007730006DED208D206809512066BFB12066BFAD0
:1007830012066BF94A4B7006799A7A0A7BFF2002AC
:100793002EE509602A7E008E8275830012057E6035
:1007A300060EEE650A70F0C2D5EBC0E0EAC0E0E9E0
:1007B300C0E0EE120A03D0E0F9D0E0FAD0E0FB1279
:1007C3000565FF60AAEBC0E0EAC0E0E9C0E01206FD
:1007D300A6D0E02401F9D0E03400FAD0E0FBE50A2A
:1007E3000460DCD50AD98087D20280A21209E660B0
:1007F300F7E50A7001041202CBA90A600DE50A604D
:100803000914F50A120A8DEF60F3EA30E702F404E3
:10081300C3995077EAF4250A0430E701E404F50AA2
:10082300800D1209E660C1EA050A250A1202CBEA25
:10083300785FF230E701E4250A04D50A04200501B4
:1008430014120A03E4C0E0120A8D785FE2601320F9
:10085300E70714F212068E802204F2D0E014C0E0FF
:100863007F0012068EE50A6007120685150A800BC3
:10087300300503120685D0E00206DED0E00480C511
:100883001209E660A0E50A041202CB785FEAF2E5FA
:100893000A2005026001042404120A0374FF04C041
:1008A300E0120A8D12068EE50A2005026003120685
:1008B30085D0E0B50AE87F45120698785FE27F2B82
:1008C30030E7047F2DF404C0E01206A6D0E075F0F3
:1008D3000A84C0F012068FD0E012068F0206DE797A
:1008E3001080027908C206C2088008D2D5790A802E
:1008F30004790AC2D5E50A047002F50AE4FAFDFE9A
:10090300FF12066BFC7B0820011312066BFD7B10A4
:1009130030000A12066BFE12066BFF7B20EC33825B
:10092300D592D55013C3E43000069FFFE49EFEE446
:100933002001039DFDE49CFCE4CBF8C201EC700CA8
:10094300CFCECDCCE824F8F870F38017C3EF33FF94
:10095300EE33FEED33FDEC33FCEB33FB994002FB4E
:100963000FD8E9EB300105F8D0E0C448B201C0E08C
:100973000AEC4D4E4F78207B0070C2EAB50A004066
:10098300BCC0E0120A05D0F0D0E0200104C4C0E0EE
:10099300C4B201C0F012068FD0F0D5F0EB0206DE30
:1009A300120645077B5308E258074C4C0748420898
:1009B300E64F08EE4408EE4907614308F45508255D
:1009C3004608834507EF470ABA5007502D07542EB0
:1009D30007772B0758230775200AA32A0710480017
:1009E30000076FE50AB4FF03750A0612066BFC12D3
:1009F300066BFD12066BFE12066BFF78580202FAB5
:100A0300790AA2D5200314300509B910020404B9E8
:100A1300080104A2D52006025001042002689202B4
:100A2300B509005034C0E07F203003197F30A202A3
:100A330072067205500F120A5CC202C206C205C2D8
:100A4300087F30800F300503E9C0E01206A63005A9
:100A530003D0E0F9D0E0B509CC3005177F30B910E9
:100A63000C1206A67F583004077F788003B9080369
:100A73001206A63002057F2D0206A67F202008F865
:100A83007F2B2006F322920280CF7F00B407005011
:100A9300052458F8E2FF22286E756C6C2900D201F8
:100AA30012066B3001F8C201780930D50108F6024D
:100AB30007102D5043495812066B2403B405004018
:100AC30001E4900AB593120697743A120697D2037B
:100AD3007509040208E275B0EFD2C4D2C2E5B0547E
:100AE3000F640F7003020B9A7F0512168EE5B05444
:100AF3000FFF640F7003020B8EAFB0EF2419604C2D
:100B030024FC6003020B8E200903020B8E7804E29F
:100B1300FE70187820E22402F218E23400F2C308CF
:100B2300E2946418E294004062801BEE6401705BFF
:100B3300782EE22405F218E23400F2C308E294644A
:100B430018E294004045E4F208F2803F30093C7813
:100B530004E2FE70177820E2700218E27007781F33
:100B6300F2087465F27820E224FE8019EEB4011BCA
:100B7300782EE2700218E27007782DF2087468F29A
:100B8300782EE224FBF218E234FFF2EF640F6007E1
:100B9300E5B0540FFF80F4C2B5D2B430B303020CF6
:100BA300467F0512168E20B374200904D209806291
:100BB30030095FC209781FE2FE08E2FF780AE26F9C
:100BC300700318E26E600B7803E22401F218E2343A
:100BD30000F2782DE2FE08E2FF7824E26F7003183A
:100BE300E26E600B7803E22401F218E23400F2783B
:100BF3001FE2FD08E27809CDF208EDF27823EEF268
:100C030008EFF2780208E2FD7F081216667F0A12E7
:100C1300168E783D7401F2E4783BF208F220B31E9D
:100C2300783DE2B402F77F0A12168EE47802F208E6
:100C3300F2FD7F081216667F0A12168E80DFE478B3
:100C43003DF22220B26A7F0512168E20B24220099D
:100C53001F7848E2FF700404F2802AEFB40107789A
:100C6300487402F2801FEFB4021BE47848F2801547
:100C73003009127804E2FF700404F28008EFB40133
:100C830004E47804F2783E7401F2E4783BF208F26B
:100C930020B219783EE2B402F77F0A12168E200CB6
:100CA30004D20C80EB300CE8C20C80E4E4783EF212
:100CB3002278327418F2087415F208F2D37803E23A
:100CC300940F18E29427404DE2FA08E2FB7C277D5B
:100CD30010FFAE021205BD7835EFF27C277D10AF11
:100CE30003AE021205BD7E037FE8CFCDCFCECCCEBF
:100CF3001205BD7836EFF27802E2FA08E2FB7C03D4
:100D03007DE8FFAE021205BD7E007F64CFCDCFCE5E
:100D1300CCCE020DAF7802E2FE08E2FFC3940FEEE1
:100D23009427505CEF94E7EE9403405478357415A0
:100D3300F27802E2FA08E2FB7C037DE8FFAE0212DE
:100D430005BD7836EFF27C037DE8AF03AE021205F2
:100D5300BD7E007F64CFCDCFCECCCE1205BD78371C
:100D6300EFF27802E2FA08E2FB7C007D64FFAE0258
:100D73001205BD7E007F0ACFCDCFCECCCE020E0DA5
:100D83007802E2FE08E2FFC394E7EE9403504DEFCE
:100D93009463EE9400404578357415F208F27802B6
:100DA300E2FA08E2FB7C007D64FFAE021205BD7827
:100DB30037EFF27C007D64AF03AE021205BD7E0007
:100DC3007F0ACFCDCFCECCCE1205BD7838EFF278E7
:100DD30002E2FE08E2FF7C007D0A803D7802E2FE2B
:100DE30008E2FFC39463EE94005036EF9409EE9447
:100DF30000402E78357415F208F208F27802E2FA10
:100E030008E2FB7C007D0AFFAE021205BD7838EFD5
:100E1300F27C007D0AAF03AE021205BD7839EDF214
:100E2300227802E2FE08E2FFC39409EE9400500E1A
:100E330078357415F208F208F208F208EFF222206E
:100E43000B03020F4DC20BE4783FF27841E27F00BF
:100E5300B454027F017840E27E00B453027E01EE77
:100E63005FFF7842E27E00B40D027E01EE5FFF7801
:100E730043E27E00B40A027E01EE5F603C784C746C
:100E8300FFF2087414F2087449F27821E2FF08E2D1
:100E9300784FCFF208EFF2E4FBFA79C87842C0004A
:100EA3007805E2FC08E2FD08E2FE08E2FFD000124A
:100EB300016F785112062080737841E27F00B441BC
:100EC300027F017840E27E00B450027E01EE5FFFB4
:100ED3007842E27E00B452027E01EE5FFF7843E285
:100EE3007E00B441027E01EE5FFF7844E27E00B4EF
:100EF3000D027E01EE5FFF7845E27E00B40A027EBA
:100F030001EE5F603A784C74FFF2087414F20874CF
:100F130057F2782DE2FF08E2784FCFF208EFF2782C
:100F23001FE2FF08E27851CFF208EFF27BFE7A006E
:100F3300790B1206C77BFE7A00790B7D1480087B40
:100F4300FE7A0079257D091214B0227F08D2900021
:100F5300000000000000000000000000000000008E
:100F6300000000000000000000000000000000007E
:100F7300000000000000000000000000000000006E
:100F8300000000000000000000000000000000005E
:100F9300000000000000000000000000000000004E
:100FA300000000000000000000000000000000003E
:100FB300000000C2900000000000000000000000DC
:100FC300000000000000000000000000000000001E
:100FD300000000000000000000000000000000000E
:100FE30000000000000000000000000000000000FE
:100FF30000000000000000000000000000000000EE
:1010030000000000000000000000000000000000DD
:10101300000000000000000000AE071FEE600302A6
:101023000F5022C0E0C083C082C0D075D000C00082
:10103300C006C00743A0E07580FF43A0C053A0DFF4
:10104300783AE2FF7401A807088002C333D8FCF59D
:101053008043A0E074322FF8E290146493F5807813
:101063003CE22401F218E23400F2783DE2B4010ECE
:1010730018E2B4E81F18E2B4031A783D8013783EEF
:10108300E2B40110783CE2B4E80A18E2B40305784C
:101093003E7402F2783AE204F2B40802E4F2780011
:1010A30008E22401FFF218E23400FEF2EF64C84EB6
:1010B3007005F208F2D20AC37830E2940118E29480
:1010C30000401B08E22401F218E23400F2C308E2F4
:1010D300941E18E294004006E4F208F2D20BD00703
:1010E300D006D000D0D0D082D083D0E032787FE455
:1010F300F6D8FD7581210211370213A4E493A3F8F6
:10110300E493A34003F68001F208DFF48029E4931B
:10111300A3F85407240CC8C333C4540F4420C88312
:101123004004F456800146F6DFE4800B0102040814
:101133001020408090126FE47E019360BCA3FF54A3
:101143003F30E509541FFEE493A360010ECF54C062
:1011530025E060A840B8E493A3FAE493A3F8E493EA
:10116300A3C8C582C8CAC583CAF0A3C8C582C8CAF2
:10117300C583CADFE9DEE780BE78327416F208144D
:10118300F208F208F27805E2FC08E2FD08E2FE0844
:10119300E2FF12024AAB07AA067C037DE81205BDF3
:1011A3007836EFF27C037DE8AF03AE021205BD7E15
:1011B300007F64CFCDCFCECCCE1205BDEF240A780D
:1011C30037F27805E2FC08E2FD08E2FE08E2FF12CE
:1011D300024AAB07AA067C007D641205BD7E007F30
:1011E3000ACFCDCFCECCCE1205BD7838EFF27C003E
:1011F3007D0AAF03AE021205BD7839EDF222780500
:10120300E2FC08E2FD08E2FE08E2FF12024AC378AC
:101213000AE29F18E29E7831E2500454FE800244B1
:1012230001F243A08053A09FE2F5807823E2FE08F9
:10123300E2FFC37822E29F18E29E7831E250045421
:10124300FD80024402F243A08053A09FE2F5803068
:101253000C077831E254FB8008200C0F7831E2440C
:1012630004F243A08053A09FE2F580228131FF88DE
:10127300321515151515151515813A00C109814843
:101283000081040084050000000082020000821F28
:10129300001E822D00238209001E82230023822147
:1012A3000000C10A813D00813E00823B000088406E
:1012B3006E6968616F0D0A0088254552524F520DC1
:1012C3000A00822F0000C10B813F00C10C82000085
:1012D3000000E4F58CF58A120F4ED28C3091033066
:1012E3008DFAC28C308D0BC28D78217403F2087491
:1012F300E7F2209121D291AF8CEFAD8AFCE4120288
:10130300117B967A43798B783C12006612024A78F5
:1013130021EEF208EFF27821E2FE08E2FF22121535
:101323002F7FCC1215E27F441215E27F147E001248
:10133300163B12152F7FCC1215E27FBE1215E21257
:10134300161CA90712161CEF540FAD01FCE4120280
:1013530011E4FBFA79C8784012006612024AAD071D
:10136300AC06E41202112278327419F2087415F2F1
:1013730008F2087402F2087415F208F2782DE2FA02
:1013830008E2FB7C007D0AFFAE021205BD7838EF50
:10139300F27C007D0AAF03AE021205BD7839EDF28F
:1013A300221215A11216011216A11216C37F0812DA
:1013B30015C37802E4F208EFF27F0A12168E1213B5
:1013C3002178051206201216B3120E4212141312BC
:1013D3001201120AD912147E80E478327417F208CB
:1013E3007415F208F208F208F208F27821E2FA081A
:1013F300E2FB7C007D0AFFAE021205BD7838EFF2F6
:101403007C007D0AAF03AE021205BD7839EDF222EE
:10141300200C047F14802B300C2B7823E2FE08E28F
:10142300FFD37822E29F18E29E50047F66801378F0
:1014330023E2FE08E2FFD37822E29F18E29E4005F2
:101443007FCC1216512224252D32642C252D2E32C9
:10145300660D0A0023252D32642C252D32640D0AD6
:1014630000C0F9A4B0999282F88090407924301991
:101473001202780010BFFFC6C7C88C20091A78482B
:10148300E2700302117C7848E2B401030213DD78B1
:1014930048E2B40217020CB43009117804E2700375
:1014A3000200267804E2B4010312136A227849EB9E
:1014B300F208EAF208E9F2E4FFEFC39D501C784911
:1014C300E2FB08E2FA08E2F98F8275830012057ED7
:1014D300F5993099FDC2990F80DF22C0E0C0D07525
:1014E300D000C000309817783FE22440F8E599F225
:1014F300783FE204F2782FE4F20804F2C298D000B5
:10150300D0D0D0E03212157D121513AF0512157D20
:10151300D2A10000000000D2A0000000000030A112
:1015230007C2A01216D3C322C2A0D322C200D294F0
:101533007F0C7E0012163BC2947F507E0012163B36
:10154300D2947F0A7E0012163BA2949200121637A1
:10155300A20022EFB40A07740D121561740A3098C1
:1015630011A899B8130CC2983098FDA899C298B8DD
:1015730011F63099FDC299F59922E4FEEF30E704A4
:10158300D2A18002C2A10000000000D2A0EF25E09A
:10159300FF0000000000C2A00EEEB408DF2243A04B
:1015A300A053A0BFE4F58043A08053A09F7580FFA4
:1015B30043A0C053A0DF7580FF43A0E07580FF22E6
:1015C300AD0712167B7FA01215081216D312167BD5
:1015D3007FA112157D1215131200031216D322A92F
:1015E30007E4FBC294E9139294121637D294E9C329
:1015F30013F90BEBB408EC7F057E0002163B7598DC
:1016030050438E40538EFE53890F758B8F758DFD1E
:10161300C2ABD28ED2ACD2AF22E4FBC294ECC313E2
:10162300FCD2943094034480FC1216370BEBB408BD
:10163300EAAF04227F057E00EF1FAA0670011E4A4F
:10164300600BE4FDEDC3940850EE0D80F722AD0767
:1016530012167B7F9012157D1215137F4012150809
:101663000216D3AC0712167B7F9012157D12151349
:10167300AF041215080216D3D2A1D2A000000000B5
:1016830000C2A10000000000C2A022E4FEEEC39F3E
:10169300500B7D0C7CA9DCFEDDFC0E80F022438E1A
:1016A3000475D72075D6D1438E1043AF04D2AF2231
:1016B300300A0CC20A1212D57821EEF208EFF22298
:1016C300538E7F5389F0E4F58AF58CC28DC28C2248
:0C16D300C2A1D2A00000000000D2A122A1
:00000001FF
