:1000000002006620B0107F0512004E20B003751E5E
:100010000120B03980FB20B1107F0512004E20B1C5
:1000200003751E0220B12680FB20B2107F0512004E
:100030004E20B203751E0320B21380FB20B30E7F47
:100040000512004E20B303751E0430B3FD22E4FEFA
:10005000EEC39F500B7D0C7CA9DCFEDDFC0E80F016
:01006000227D
:100063000200F2787FE4F6D8FD7581250200AD0227
:100073000195E493A3F8E493A34003F68001F20807
:10008300DFF48029E493A3F85407240CC8C333C4D2
:10009300540F4420C8834004F456800146F6DFE43D
:1000A300800B010204081020408090013AE47E0195
:1000B3009360BCA3FF543F30E509541FFEE493A3B0
:1000C30060010ECF54C025E060A840B8E493A3FAC2
:1000D300E493A3F8E493A3C8C582C8CAC583CAF04E
:1000E300A3C8C582C8CAC583CADFE9DEE780BEC02C
:1000F300E0C0D075D000C000C00743A0E07580FF0A
:1001030043A0C053A0DFAF257401A807088002C332
:1001130033D8FCF58043A0E0741E2525F8E62408B7
:10012300F8E6F5800525E525B40803752500D00715
:10013300D000D0D0D0E032011DFF1508C0F904B0C3
:100143009992F8809040792430191202780010BFF8
:10015300B0071E010203040506070125000043A0A2
:10016300A053A0BFE4F58043A08053A09F7580FFF8
:1001730043A0C053A0DF7580FF43A0E07580FF223A
:10018300438E0475D72075D6D1438E1043AF04D266
:0D019300AF2212016112018312000380FBF4
:00000001FF
