:100ECB003132333231330D0A006572726F720D0A93
:100EDB0000C0F9A4B0999282F8809040792430191F
:070EEB001202780010BFFFA6
:10002600084115151515151515150149000124006A
:1000360002340000023D0000023F0000C109014AEF
:1000460000013C00C10A06363132330D0A00022295
:020056000000A8
:100D4A00120FAF121133121145120FF31210757FE1
:100D5A00FF1210F4120DA48E348F35121015120BD7
:100D6A00AF121164AE3DAF3E7C007D641205CF8F99
:100D7A0046AE3DAF3E7C007D641205CF7E007F0A01
:100D8A00CFCDCFCECCCE1205CF8F47AE3DAF3E7C76
:0A0D9A00007D0A1205CF8D4880B5D8
:0D116400300909C209120DEE8E3D8F3E22AA
:100DEE00E4F58CF58A120AD7D28C208D032091FA65
:100DFE00C28C308D08753F037540E7C28D20911E61
:100E0E00D291AF8CEFAD8AFCE41201717B967A43DE
:100E1E00798B783C1200661201AA8E3F8F40AE3F4E
:030E2E00AF4022B0
:100AD7007F08D29000000000000000000000000026
:100AE70000000000000000000000000000000000FF
:100AF70000000000000000000000000000000000EF
:100B070000000000000000000000000000000000DE
:100B170000000000000000000000000000000000CE
:100B270000000000000000000000000000000000BE
:100B37000000000000000000C2900000000000005C
:100B4700000000000000000000000000000000009E
:100B5700000000000000000000000000000000008E
:100B6700000000000000000000000000000000007E
:100B7700000000000000000000000000000000006E
:100B8700000000000000000000000000000000005E
:100B97000000000000000000000000000000AE0799
:070BA7001FEE6003020AD9F2
:010BAE002224
:100BAF00200A03020C3CC20AE537B474047F0180AB
:100BBF00027F00E536B474047E0180027E00EE5F92
:100BCF00FFE538B474047E0180027E00EE5FFFE51E
:100BDF0039B40D047E0180027E00EE5FFFE53AB46A
:100BEF000A047E0180027E00EE5F6021E54AB405B3
:100BFF001C754EFF754F0E7550CB7B007A00792513
:100C0F001206C47B007A0079257D08801A754EFF85
:100C1F00754F0E7550D47B007A0079251206C47B70
:0E0C2F00007A0079257D07120F40E4F54A2275
:10107500759850438E40538EFE53890F758BE875D6
:0B1085008DFFC2ABD28ED2ACD2AF22E6
:0300230002103791
:10103700C0E0C0D075D000C00030980E7436254A85
:10104700F8A699054AC298753C01D000D0D0D0E0E7
:011057003266
:060F40008B4B8A4C894D29
:100F4600E4FFEFC39D5018AB4BAA4CA94D8F827599
:0F0F5600830012057EF5993099FDC2990F80E353
:010F65002269
:10113300438E0475D7CD75D6D4438E1043AF04D2F6
:02114300AF22D9
:03006300020CC9C3
:100CC900C0E0C083C082C0D075D000C000C006C0DB
:010CD9000713
:100CDA0043A0E07580FF43A0C053A0DFAF49740171
:100CEA00A807088002C333D8FCF58043A0E074410A
:100CFA002549F8E6900EDC93F5800549E549B408E4
:100D0A0003754900E53CC39401400D053CE53C945C
:100D1A00144005D20A753C000523E523700205221A
:100D2A00FFAE22BE010BBFF408752200752300D264
:010D3A0009AF
:0F0D3B00D007D006D000D0D0D082D083D0E03205
:10114500538E7F5389F0E4F58AF58CC28DC28C22CB
:100FAF0043A0A053A0BFE4F58043A08053A09F753A
:100FBF0080FF43A0C053A0DF7580FF43A0E0758082
:020FCF00FF22FF
:1010C500E4FDEDC39FE49E500E0000007C0B7BBE4B
:0710D500DBFEDCFC0D80EBEB
:0110DC0022F1
:04117100D2A07F3257
:0811750000AE071FEE70F92225
:0F115500D2A1121171C2A17F32121175C2A02254
:0C117D00C2A1121171D2A17F32021175C3
:1010DD00C2A0A20B92A17F32121175121171C2A082
:0710ED00D2A17F3202117550
:0A109000AB071211557F90120E9F5E
:10109A00121171A2A19200C2A07F32121175A20090
:0110AA002223
:020E9F00AD079D
:100EA100E4FCC2A07F32121175ED30E704D2A180BB
:100EB10002C2A17F32121175D2A0ED25E0FD7F3271
:090EC1001211750CBC08DBC2A083
:010ECA002205
:10105800E4FC121171ED25E0FD30A103430501C246
:0C106800A07F321211750CBC08E8AF0527
:011074002259
:100F8B00121090AF03120E9F12109A12117D1211B4
:100F9B00557F91120E9F12109A121058AD07121115
:030FAB007DAF0512
:010FAE002220
:020E7100AB07CD
:100E73001211557FA0120E9F12109AAF03120E9FEC
:100E830012109A12117D1211557FA1120E9F12108A
:0B0E93009A121058AD0712117DAF0538
:010E9E002231
:1010F4001210907F40120E9F12109AAF03120E9F8F
:0611040012109A02117D99
:100FD100AB05AA071211557FA0120E9F12109AAFEE
:100FE10002120E9F12109AAF03120E9F12109A0254
:020FF100117D70
:090058000708373B170000000007
:10112000E4FEC297EF1392A3EFC313FFD2970EBE54
:0211300008F0C5
:01113200229A
:100F6600C29300C29700D29300121120ED75F00AC9
:100F760084C454F0FFED75F00A84E5F04FFDFF12CE
:050F86001120C29322BE
:100E3100E4FDC29300C29700D29300121120E4FF97
:100E4100C297EDC313FD30A303430580D2970FBFB3
:100E510008EEC29300C29700D29700C2A300D2A3AA
:0F0E610000EDC4540F75F00AA4FFED540F2FFFDE
:010E7000225F
:100FF300E4FC7B80FD7F8E120F66AF0374082CF830
:10100300E6FD120F660B0B0CBC08EF7D807F8E0292
:021013000F6666
:10101500E4FC7B81FD7F8E120F66AF03120E3174E7
:10102500082CF8A6070B0B0CBC08EF7D807F8E0201
:021035000F6644
:04110A007F057E00DF
:10110E007C007D0A1205BDEF1FAC0670011E4C70EF
:02111E00F622B7
:02000300AB0749
:10000500E4FAC294EB13929412110AD294EBC3133F
:0C001500FB0ABA08ED7F057E0002110E08
:1010AB00E4FAC294EBC313FBD29430940343038052
:0910BB0012110A0ABA08EBAF0396
:0110C4002209
:100EF200C200D2947F0C7E0012110EC2947F507EEB
:100F02000012110ED2947F0A7E0012110EA2949248
:060F12000012110AA2000A
:010F180022B6
:100DA400120EF27FCC1200037F441200037F147EE4
:100DB4000012110E120EF27FCC1200037FBE12003D
:100DC400031210AB754B008F4C1210AB7E0053070F
:100DD4000FEF454BFCE54CFDE4120171E4FBFA799D
:090DE400C878401200661201AA51
:010DED0022E3
:10006600EC4D6011E8497017ED33EC3304600DE494
:10007600FCFFFEFD22E933E8330470F80202161293
:1000860001E158046009E4CC248150062850090295
:10009600022028400302021DC0E0EB4A7044B980EA
:1000A60006D0E0FB02020CEF4E701CBD8008EBFF91
:1000B600EAFEE9FD80EBE98DF0A4FEE5F002014FD2
:1000C600E9CDF9EAFEEBFFEF89F0A4FCE5F0CE8975
:1000D600F0A42EFFE435F0CD89F0A42DFEE435F032
:1000E6008067EF4E7005BD80D780C3EF8BF0A4AC60
:1000F600F0EE8BF0A42CFCE435F0F8EF8AF0A42C9B
:10010600E5F038FCE433CB8DF0A42CFCE5F03BF8AD
:10011600EE8AF0A42CFCE5F038F8E433CF89F0A49D
:100126002CFCE5F038CF3400CE89F0A42FFFE5F0A3
:100136003EFEE433C98DF0A42EFEE5F039CD8AF0FB
:10014600A42FFFE5F03EFEE43DFD33D0E0FB500773
:100156000BBB000F020220EC2CFCEF33FFEE33FE4C
:06016600ED33FD0201F87B
:10016C0075F020800E75F010800575F0087D007E0E
:10017C00007F003392D530D503120624EC334010A7
:10018C00EF33FFEE33FEED33FDEC33FCD5F0ED2217
:0E019C00E5F0247EA2D513CC92E7CDCEFF2253
:1001AA00EDD2E7CD33EC3392D524814006E4FFFE4D
:1001BA00FDFC22FCE4CFCECDCC24E0501174FF80AC
:1001CA00EDC3CC13CCCD13CDCE13CECF13CF047049
:0701DA00F030D5DE0206241F
:10066800E562244EF8E6056222784B300702784EA0
:10067800E475F0011206320205652000EB7F2ED2E8
:10068800008018EF540F2490D43440D4FF30040B6A
:10069800EF24BFB41A0050032461FFE5636002151C
:1006A800630566E5667002056530070D784BE475ED
:1006B800F001120632EF0205AB020F197403D207DC
:1006C8008003E4C207F5628B4B8A4C894DE4F563DD
:1006D800F565F566E56360077F201206A380F5756A
:1006E80064FFC201C200C202C203C205C206C20838
:1006F800120671FF700D3007057F001206B4AF6651
:10070800AE6522B4255FC2D5C204120671FF24D09B
:10071800B40A00501A75F00A786330D50508B6FF98
:100728000106C6A426F620D5047002D20380D92477
:10073800CFB41A00EF5004C2E5D2040209A1D201D5
:1007480080C6D20080C0D20280BCD2D580BAD20581
:1007580080B47F201206A32002077401B56300400D
:10076800F1120668FF1206A30206DCD208D2068040
:1007780095120668FB120668FA120668F94A4B7069
:100788000679987A0A7BFF20022EE563602A7E00AC
:100798008E8275830012057E60060EEE656470F029
:1007A800C2D5EBC0E0EAC0E0E9C0E0EE120A01D031
:1007B800E0F9D0E0FAD0E0FB120565FF60AAEBC0D3
:1007C800E0EAC0E0E9C0E01206A3D0E02401F9D0D5
:1007D800E03400FAD0E0FBE5640460DCD564D9803D
:1007E80087D20280A21209E460F7E564700104125E
:1007F800022BA964600DE564600914F564120A8B84
:10080800EF60F3EA30E702F404C3995077EAF4257D
:10081800640430E701E404F564800D1209E460C162
:10082800EA0564256412022BEA7861F630E701E4F0
:10083800256404D5640420050114120A01E4C0E00B
:10084800120A8B7861E6601320E70714F612068B0C
:10085800802204F6D0E014C0E07F0012068BE56425
:1008680060071206821564800B300503120682D0D9
:10087800E00206DCD0E00480C51209E460A0E5646B
:100888000412022B7861EAF6E5642005026001048F
:050898002404120A0116
:10089D0074FF04C0E0120A8B12068BE5642005027A
:1008AD006003120682D0E0B564E87F4512069578A4
:1008BD0061E67F2B30E7047F2DF404C0E01206A320
:1008CD00D0E075F00A84C0F012068CD0E012068CD0
:1008DD000206DC791080027908C206C2088008D2AF
:1008ED00D5790A8004790AC2D5E564047002F564ED
:1008FD00E4FAFDFEFF120668FC7B082001131206C8
:10090D0068FD7B1030000A120668FE120668FF7B38
:10091D0020EC3382D592D55013C3E43000069FFFEF
:10092D00E49EFEE42001039DFDE49CFCE4CBF8C2B3
:10093D0001EC700CCFCECDCCE824F8F870F3801715
:10094D00C3EF33FFEE33FEED33FDEC33FCEB33FB46
:10095D00994002FB0FD8E9EB300105F8D0E0C4480F
:10096D00B201C0E00AEC4D4E4F78207B0070C2EA18
:10097D00B5640040BCC0E0120A03D0F0D0E0200105
:10098D0004C4C0E0C4B201C0F012068CD0F0D5F0A2
:10099D00EB0206DC12064207795308E058074A4C71
:1009AD0007464208E44F08EC4408EC49075F43084A
:1009BD00F25508234608814507ED470AB850074E02
:1009CD002D07522E07752B0756230773200AA12AD0
:1009DD00070E480000076DE564B4FF037564061249
:1009ED000668FC120668FD120668FE120668FF789E
:1009FD005A02025A790AA2D5200314300509B910FA
:100A0D00020404B9080104A2D520060250010420F5
:100A1D0002689202B563005034C0E07F20300319A4
:100A2D007F30A20272067205500F120A5AC202C21C
:100A3D0006C205C2087F30800F300503E9C0E01201
:100A4D0006A3300503D0E0F9D0E0B563CC3005172F
:100A5D007F30B9100C1206A37F583004077F7880C1
:100A6D0003B908031206A33002057F2D0206A37FEA
:100A7D00202008F87F2B2006F322920280CF7F00E2
:100A8D00B407005005245AF8E6FF22286E756C6CE9
:100A9D002900D2011206683001F8C201786330D501
:100AAD000108F602070E2D5043495812066824031B
:100ABD00B405004001E4900AB393120694743A12FF
:0A0ACD000694D2037563040208E0EA
:1001E100E9D2E7C933E833F892D5EDD2E7CD33EC64
:0701F10033FC5002B2D522DD
:1001F800EC30E7100FBF000C0EBE00080DBD000468
:100208000BEB6014A2D5EB13FCED92E7FD2274FF13
:10021800FCFDFEFF22E480F8A2D574FF13FC7D806C
:03022800E480EF80
:10022B00F920E72824F950037907E4F42402FB189A
:10023B00DBFDE624FB5014E9600DE4F618E604F64A
:0F024B00B40A08E4F6D9F57401F60A22C2D522E6
:10025A00ED33EC3392D5FA602AB4FF33EDC2E77B73
:10026A00FF60067A02797FE4227A02798820D5042F
:10027A007A027983224E614E002B494E46002D495F
:10028A004E4600E47A08F608DAFC7B00740722E896
:10029A00C0E0ECC0E0EDC0E0EEC0E0EFC0E0EA751F
:1002AA00F010A4CAABF075F04DA42BFBE435F0FCBA
:1002BA00EA2410FAEB34C5FBEC34D9FCEDC2E7FFB3
:1002CA0075F056A4F42411C5F0F434C58FF0A42AAD
:1002DA00E5F03BE43CF620E714120525D0E0FFD018
:1002EA00E0FED0E0FDD0E0FC1204588014F40412C1
:1002FA000525D0E0FFD0E0FED0E0FDD0E0FC120002
:10030A0066D0E0F8E6FAEDD2E7CD33EC332482FB8F
:10031A00E4C3CF33CFCE33CECD33CD33DBF37B073C
:10032A0075F00A846004F6081B0AE5F0F6088FF0F7
:10033A00740AA4FFACF08EF0740AA42CFEACF05040
:10034A00010C8DF0740AA42CFDE435F0F608DBDE0E
:03035A0074072203
:10035D00020216E86480F8E933E83360110460F0B6
:10036D00ED33EC337009E8FCE9FDEAFEEBFF220406
:10037D0060DED3EB9FEA9EE99DE8C2E78CF0C2F701
:10038D0095F0400CE8CCF8E9CDF9EACEFAEBCFFBCD
:10039D001201E185D0F05804700320D5B3E8047044
:1003AD00075002B2D502022092D5EC0460F7E4CCDE
:1003BD00C0E0C398F8603B94186008400DD0E0FB96
:1003CD000201F8E4FBFAC9FC8028E830E406E4C930
:1003DD00FBE4CAFCE830E305E4C9CACBFCE85407EA
:1003ED006010F8C3E913F9EA13FAEB13FBEC13FCF5
:1003FD00D8F130F52FC3E49CFCEF9BFFEE9AFEED98
:10040D0099FDD0E0FBEF4E4D4C701222DB03020242
:10041D001DEC2CFCEF33FFEE33FEED33FDED30E73D
:10042D00EB0201F8EF2BFFEE3AFEED39FDD0E0FBCC
:10043D0050130BBB0003020220ED13FDEE13FEEF74
:08044D0013FFEC13FC0201F89F
:10045500020220EC5D046005E859047003020216EF
:100465001201E1580460F6EC4860F2EC7004FDFE00
:10047500FF22C860DB2481C85009C398600250067A
:1004850002021D9850CAF582E9294B4A7005AB82D4
:1004950002020C75F0007C1A7880C3EF9BEE9AED92
:1004A50099400DC3EF9BFFEE9AFEED99FDE842F0F2
:1004B500DC23ACF0D0E0FFD0E0FED0E0FDAB822045
:1004C500E7101BEB60BAEC2CFCEF33FFEE33FEEDCF
:1004D50033FD0201F8E803F830E705C0F075F000D8
:1004E500EF2FFFEE33FEED33FD40B830E7C280AAB3
:1004F5003F8000004120000042C80000447A00000F
:10050500461C400047C35000497424004B18968090
:100515004CBEBC205A0E1BCA6753C21C749DC5AE87
:10052500FB60065407601C2323120553EB54386007
:100535000912053F12054E120066ECF8EDF9EEFAC8
:10054500EFCB22EB12054E80F1543803241C9004A6
:10055500F5FE93FC0EEE93FD0EEE930ECE93FF2269
:03000000020C3DB2
:0C0C3D00787FE4F6D8FD758166020C8417
:10056500BB010689828A83E0225002E722BBFE0294
:09057500E32289828A83E49322C7
:10057E00BB010CE58229F582E5833AF583E0225032
:10058E0006E92582F8E622BBFE06E92582F8E2227C
:0D059E00E58229F582E5833AF583E4932296
:1005AB00BB010689828A83F0225002F722BBFE012F
:0205BB00F32229
:1005BD00EF8DF0A4A8F0CF8CF0A428CE8DF0A42E52
:0205CD00FE220C
:1005CF00BC000BBE0029EF8DF084FFADF022E4CC10
:1005DF00F875F008EF2FFFEE33FEEC33FCEE9DECD9
:1005EF00984005FCEE9DFE0FD5F0E9E4CEFD22ED1F
:1005FF00F8F5F0EE8420D21CFEADF075F008EF2F69
:10060F00FFED33FD4007985006D5F0F222C398FD59
:05061F000FD5F0EA22F6
:0E062400C3E49FFFE49EFEE49DFDE49CFC22E7
:10063200FAE6FB0808E6F925F0F618E6CA3AF622C9
:10064200D083D082F8E4937012740193700DA3A347
:1006520093F8740193F5828883E47374029368605B
:06066200EFA3A3A380DF5B
:100F1900EFB40A07740D120F24740A309811A899B6
:100F2900B8130CC2983098FDA899C298B811F63038
:070F390099FDC299F5992210
:100C4900020D4AE493A3F8E493A34003F68001F26A
:100C590008DFF48029E493A3F85407240CC8C333AC
:100C6900C4540F4420C8834004F456800146F6DF7B
:100C7900E4800B0102040810204080900026E47EE5
:100C8900019360BCA3FF543F30E509541FFEE49370
:100C9900A360010ECF54C025E060A840B8E493A337
:100CA900FAE493A3F8E493A3C8C582C8CAC583CA62
:100CB900F0A3C8C582C8CAC583CADFE9DEE780BE1A
:01006100009E
:00000001FF
