:10025C00C0F9A4B0999282F8809040792430191298
:06026C0002780010BFFF44
:10003000080B1515151515151515011300010900E7
:10004000010800010A020114000115000216000057
:040050000218000092
:1000030012027212021E120066E51475F00A84F5DC
:100013000BE51475F00A8485F00CE51575F00A8478
:0D002300F511E51575F00A8485F01280D9FD
:1000660020B34A12024020B30F7509010514E514A6
:10007600C394324003E4F51420B32BE509B402130C
:100086007F3C7E001202440514E514C394324003FB
:10009600E4F514E51475F00A84F50BE51475F00A19
:1000A6008485F00C80D2E4F509F516F51720B2091F
:1000B60012024020B20375080130B23112024030FC
:1000C600B22BE508B40126E4F508C3E51994C8E5A2
:1000D6001894005005E4F50A800EC3E51994C8E5A6
:1000E6001894004003750A01E4F518F519E50A703D
:1000F6000E0515E515D394464018E4F5158013E56D
:100106000AB40111740A2515F515D394464003E483
:06011600F515750A022236
:10027200438E0475D7CD75D6D4438E1075AF04D294
:02028200AF22A9
:030063000201A8EF
:1001A800C0E0C083C082C0D075D000C000C0074383
:1001B800A0E07580FF43A0C053A0DFAF137401A86F
:1001C80007088002C333D8FCF58043A0E0740B25F0
:1001D80013F8E690025C93F5800513E513B4080361
:1001E800751300E509B401140517E5177002051623
:1001F800C394E8E51694034003750902E508B401C1
:10020800080519E51970020518D007D000D0D0D01C
:0602180082D083D0E03229
:040240007F057E00B8
:10024400E4FDEDC39FE49E500E0000007C0B7BBEDA
:07025400DBFEDCFC0D80EB7A
:01025B002280
:10021E0043A0A053A0BFE4F58043A08053A09F75D8
:10022E0080FF43A0C053A0DF7580FF43A0E0758020
:02023E00FF229D
:0300000002011CDE
:0C011C00787FE4F6D8FD758119020163BC
:10012800020003E493A3F8E493A34003F68001F2EA
:1001380008DFF48029E493A3F85407240CC8C333D8
:10014800C4540F4420C8834004F456800146F6DFA7
:10015800E4800B0102040810204080900030E47E07
:10016800019360BCA3FF543F30E509541FFEE4939C
:10017800A360010ECF54C025E060A840B8E493A363
:10018800FAE493A3F8E493A3C8C582C8CAC583CA8E
:10019800F0A3C8C582C8CAC583CADFE9DEE780BE46
:0100540000AB
:00000001FF
