:100477001623C0F9A4B0999282F88090407924306D
:10048700191202780010BFFF083D1515151515152F
:10049700151501450002390000023B0000C10002AA
:0304A70021000031
:100435001204AB1204DF1204CD1204EFAE39AF3A49
:100445007C007D6412022B8F3DAE39AF3A7C007D76
:100455006412022B7E007F0ACFCDCFCECCCE120206
:100465002B8F3EAE39AF3A7C007D0A12022B8D3FB1
:0204750080C73E
:0D04EF00300009C2001203F28E398F3A224C
:10028E007F08D29000000000000000000000000077
:10029E000000000000000000000000000000000050
:1002AE000000000000000000000000000000000040
:1002BE000000000000000000000000000000000030
:1002CE000000000000000000000000000000000020
:1002DE000000000000000000000000000000000010
:1002EE000000000000000000C290000000000000AE
:1002FE0000000000000000000000000000000000F0
:10030E0000000000000000000000000000000000DF
:10031E0000000000000000000000000000000000CF
:10032E0000000000000000000000000000000000BF
:10033E0000000000000000000000000000000000AF
:10034E000000000000000000000000000000AE07EA
:07035E001FEE600302029094
:010365002275
:1003F200E4F58CF58A12028ED28C309103308DFA9C
:10040200C28C20911ED291AF8CEFAD8AFCE4120116
:10041200717B967A43798B783C1200661201AA8E20
:100422003B8F3C308D08C28D753B03753CE7AE3B7C
:03043200AF3C22BA
:1004CD00438E0475D7CD75D6D4438E1043AF04D269
:0204DD00AF224C
:0300630002000395
:0B000300C0E0C0D075D000C000C007F6
:10000E0043A0E07580FF43A0C053A0DFAF4574014D
:10001E00A807088002C333D8FCF58043A0E0743DE6
:10002E002545F8E62423F8E6F5800545E545B408B0
:10003E00037545000522E5227002052164C845219D
:08004E007006F521F522D20035
:09005600D007D000D0D0D0E03278
:1004DF00538E7F5389F0E4F58AF58CC28DC28C223E
:1004AB0043A0A053A0BFE4F58043A08053A09F7549
:1004BB0080FF43A0C053A0DF7580FF43A0E0758091
:0204CB00FF220E
:10006600EC4D6011E8497017ED33EC3304600DE494
:10007600FCFFFEFD22E933E8330470F80202161293
:1000860001E158046009E4CC248150062850090295
:10009600022028400302021DC0E0EB4A7044B980EA
:1000A60006D0E0FB02020CEF4E701CBD8008EBFF91
:1000B600EAFEE9FD80EBE98DF0A4FEE5F002014FD2
:1000C600E9CDF9EAFEEBFFEF89F0A4FCE5F0CE8975
:1000D600F0A42EFFE435F0CD89F0A42DFEE435F032
:1000E6008067EF4E7005BD80D780C3EF8BF0A4AC60
:1000F600F0EE8BF0A42CFCE435F0F8EF8AF0A42C9B
:10010600E5F038FCE433CB8DF0A42CFCE5F03BF8AD
:10011600EE8AF0A42CFCE5F038F8E433CF89F0A49D
:100126002CFCE5F038CF3400CE89F0A42FFFE5F0A3
:100136003EFEE433C98DF0A42EFEE5F039CD8AF0FB
:10014600A42FFFE5F03EFEE43DFD33D0E0FB500773
:100156000BBB000F020220EC2CFCEF33FFEE33FE4C
:06016600ED33FD0201F87B
:10016C0075F020800E75F010800575F0087D007E0E
:10017C00007F003392D530D503120280EC3340104F
:10018C00EF33FFEE33FEED33FDEC33FCD5F0ED2217
:0E019C00E5F0247EA2D513CC92E7CDCEFF2253
:1001AA00EDD2E7CD33EC3392D524814006E4FFFE4D
:1001BA00FDFC22FCE4CFCECDCC24E0501174FF80AC
:1001CA00EDC3CC13CCCD13CDCE13CECF13CF047049
:0701DA00F030D5DE020280C7
:1001E100E9D2E7C933E833F892D5EDD2E7CD33EC64
:0701F10033FC5002B2D522DD
:1001F800EC30E7100FBF000C0EBE00080DBD000468
:100208000BEB6014A2D5EB13FCED92E7FD2274FF13
:10021800FCFDFEFF22E480F8A2D574FF13FC7D806C
:03022800E480EF80
:0300000002036692
:0C036600787FE4F6D8FD7581450203ADF8
:10022B00BC000BBE0029EF8DF084FFADF022E4CCB7
:10023B00F875F008EF2FFFEE33FEEC33FCEE9DEC80
:10024B00984005FCEE9DFE0FD5F0E9E4CEFD22EDC6
:10025B00F8F5F0EE8420D21CFEADF075F008EF2F10
:10026B00FFED33FD4007985006D5F0F222C398FD01
:05027B000FD5F0EA229E
:0E028000C3E49FFFE49EFEE49DFDE49CFC228F
:10037200020435E493A3F8E493A34003F68001F268
:1003820008DFF48029E493A3F85407240CC8C3338C
:10039200C4540F4420C8834004F456800146F6DF5B
:1003A200E4800B0102040810204080900477E47E70
:1003B200019360BCA3FF543F30E509541FFEE49350
:1003C200A360010ECF54C025E060A840B8E493A317
:1003D200FAE493A3F8E493A3C8C582C8CAC583CA42
:1003E200F0A3C8C582C8CAC583CADFE9DEE780BEFA
:0104AA000051
:00000001FF
