:10040C001623C0F9A4B0999282F8809040792430D8
:10041C00191202780010BFFF083B1515151515159C
:0F042C00151501430002390000C1000221000034
:1000660012043C12004712047112045E120047AEDD
:1000760039AF3AE4FCFD7B9F7A867901F8C3120218
:100086003B5033AE39AF3AE4FCFD0BF81200038F58
:100096003DAE39AF3AE4FCFD7BA07A867901F812D1
:1000A6000003AC00AD01AE02AF03E47B107A27F982
:1000B600F8120003802CD3E53A940FE539942740D3
:1000C6003AAE39AF3AE4FCFD7B9F7A867901F812A5
:1000D600023B4027753D15AE39AF3A7C277D10129D
:1000E60001E68F3EAE39AF3A7C277D101201E67EDF
:1000F600037FE8CFCDCFCECCCE8024D3E53A94E7AC
:10010600E53994034035D3E53A940FE53994275001
:100116002A753D15753E15AE39AF3A7C037DE8125A
:1001260001E68F3FAE39AF3A7C037DE81201E67EE9
:10013600007F64CFCDCFCECCCE8027D3E53A946373
:10014600E53994004038D3E53A94E7E5399403500D
:100156002D753D15753E15753F15AE39AF3A7C00C8
:100166007D641201E68F40AE39AF3A7C007D6412A1
:1001760001E67E007F0ACFCDCFCECCCE802AD3E556
:100186003A9409E53994004034D3E53A9463E53965
:1001960094005029753D15753E15753F157540152A
:1001A600AE39AF3A7C007D0A1201E68F41AE39AF17
:1001B6003A7C007D0A1201E68D42020072D3E53ACE
:1001C6009409E53994004003020072753D15753EA9
:1001D60015753F15754015754115853A4202007231
:10004700300018E4F521F522C200AF8CEFAD8AF538
:0C00570039EDF53AE4F58CF58AD28C22E4
:10047100438E0475D7CD75D6D4438E1043AF04D2C5
:02048100AF22A8
:030063000203ABEA
:1003AB00C0E0C0D075D000C000C006C00743A0E0BD
:1003BB007580FF43A0C053A0DFAF437401A80708AB
:1003CB008002C333D8FCF58043A0E0743B2543F88F
:1003DB00E62423F8E6F5800543E543B408037543AB
:1003EB00000522E52270020521FFAE21BE0307BFE7
:1003FB002004D200C28CD007D006D000D0D0D0E0E1
:01040B0032BE
:10045E00438E805389F0438904E4F58AF58CC28D6E
:03046E00D28C220B
:10043C0043A0A053A0BFE4F58043A08053A09F75B8
:10044C0080FF43A0C053A0DF7580FF43A0E0758000
:02045C00FF227D
:0300000002031FD9
:0C031F00787FE4F6D8FD75814302036688
:1001E600BC000BBE0029EF8DF084FFADF022E4CCFD
:1001F600F875F008EF2FFFEE33FEEC33FCEE9DECC6
:10020600984005FCEE9DFE0FD5F0E9E4CEFD22ED0B
:10021600F8F5F0EE8420D21CFEADF075F008EF2F55
:10022600FFED33FD4007985006D5F0F222C398FD46
:050236000FD5F0EA22E3
:10000300C2D5E830E70FB2D5E4C39BFBE49AFAE428
:1000130099F9E498F8EC30E717B2D51200391202D7
:100023008DE4C39BFBE49AFAE499F9E498F880031E
:1000330012028D30D50DE4C39FFFE49EFEE49DFDC7
:04004300E49CFC221B
:10023B00EB9FF5F0EA9E42F0E99D42F0EC6480C83A
:06024B0064809845F022DA
:10032B00020066E493A3F8E493A34003F68001F282
:10033B0008DFF48029E493A3F85407240CC8C333D3
:10034B00C4540F4420C8834004F456800146F6DFA2
:10035B00E4800B010204081020408090040CE47E22
:10036B00019360BCA3FF543F30E509541FFEE49397
:10037B00A360010ECF54C025E060A840B8E493A35E
:10038B00FAE493A3F8E493A3C8C582C8CAC583CA89
:10039B00F0A3C8C582C8CAC583CADFE9DEE780BE41
:01043B0000C0
:1002510075F008758200EF2FFFEE33FECD33CDCC64
:1002610033CCC58233C5829BED9AEC99E5829840E7
:100271000CF582EE9BFEED9AFDEC99FC0FD5F0D6C4
:10028100E4CEFBE4CDFAE4CCF9A88222B800C1B9EE
:100291000059BA002DEC8BF084CFCECDFCE5F0CB2C
:1002A100F97818EF2FFFEE33FEED33FDEC33FCEB65
:1002B10033FB10D703994004EB99FB0FD8E5E4F920
:1002C100FA227818EF2FFFEE33FEED33FDEC33FC0D
:1002D100C933C910D7059BE99A4007EC9BFCE99A01
:1002E100F90FD8E0E4C9FAE4CCFB2275F010EF2F46
:1002F100FFEE33FEED33FDCC33CCC833C810D70746
:100301009BEC9AE899400AED9BFDEC9AFCE899F880
:0E0311000FD5F0DAE4CDFBE4CCFAE4C8F92213
:00000001FF
