:1001E2000139FF1722C0F9A4B0999282F880904099
:1001F200792430191202780010BFFFC6083A15158B
:10020200151515151515014200012100C101C10086
:10004B001202E312038312029D12021C8F21120073
:06005B00F212000380F325
:1000030020B00D12035720B002D20020B03980FB7C
:1000130020B10D12035720B102D20020B12980FB79
:1000230020B20D12035720B202D20020B21980FB76
:1000330020B31412035720B307D200200102D201C8
:0800430020B304C20180F92280
:1000F20020013AE50A75F00A84F53AE50A75F00A34
:100102008485F03B753C14E50975F00A84F53DE5FC
:100112000975F00A8485F03E753F14E50875F00A0A
:1001220084F540E50875F00A8485F0412230012308
:10013200753A15753B15753C15753D15753E15E5FA
:100142002175F00A84F53FE52175F00A8485F040B7
:0401520075411622BB
:1002E30043A0A053A0BFE4F58043A08053A09F7513
:1002F30080FF43A0C053A0DF7580FF43A0E075805B
:02030300FF22D7
:10038300438E0475D72075D6D1438E1043AF04D264
:02039300AF2297
:0300630002015641
:10015600C0E0C0D075D000C000C00743A0E07580E5
:10016600FF43A0C053A0DFAF427401A80708800276
:10017600C333D8FCF58043A0E0743A2542F8E62460
:1001860022F8E6F5800542E542B40803754200D040
:0801960007D000D0D0D0E03208
:040357007F057E00A0
:10035B00E4FDEDC39FE49E500B7C0C7BA9DBFEDC24
:04036B00FC0D80EE17
:01036F00226B
:040323007F057E00D4
:10032700EF1FAA0670011E4A600BE4FDEDC3940897
:0503370050EE0D80F7FF
:01033C00229E
:02030500A90746
:10030700E4FBC294E9139294120323D294E9C31332
:0C031700F90BBB08ED7F057E00020327F8
:10033D00E4FBC294ECC313FCD294309403430480C9
:09034D001203230BBB08EBAF0403
:010356002284
:10025100C202D2947F0C7E00120327C2947F507E8B
:1002610000120327D2947F0A7E00120327A29492E0
:0602710002120323A202A9
:010277002264
:10021C001202517FCC1203057F441203057F147E1A
:10022C00001203271202517FCC1203057FBE12036A
:10023C000512033DA90712033DEFC454F0FFE9C4B6
:04024C00540F4FFFFD
:01025000228B
:090212000708323B170000000050
:10037000E4FEC297EF1392A3EFC313FFD2970EBE12
:0203800008F083
:010382002258
:10027800C29300C29700D29300120370ED75F00A82
:1002880084FFED75F00A84EFC454F045F0FDFF12C9
:040298000370C2939A
:01029C00223F
:10019E00E4FDC29300C29700D29300120370E4FFF5
:1001AE00C297EDC313FD30A303430580D2970FBF53
:1001BE0008EEC29300C293C29700D29700C2A3006A
:1001CE00D2A300EDC4540FFFED540FFEEF75F00AED
:0301DE00A42EFF4D
:0101E10022FB
:10029D007C80E4FD7F8E120278E4FBAF0474082BA2
:1002AD00F8E6FD1202780C0C0BBB08EF7D807F8EFB
:0302BD00020278C2
:1002C0007C81E4FD7F8E120278E4FBAF0412019E74
:1002D00074082BF8A6070C0C0BBB08EF7D807F8EF3
:0302E0000202789F
:0300000002006695
:0C006600787FE4F6D8FD7581420200AD01
:1000720002004BE493A3F8E493A34003F68001F259
:1000820008DFF48029E493A3F85407240CC8C3338F
:10009200C4540F4420C8834004F456800146F6DF5E
:1000A200E4800B01020408102040809001E2E47E0B
:1000B200019360BCA3FF543F30E509541FFEE49353
:1000C200A360010ECF54C025E060A840B8E493A31A
:1000D200FAE493A3F8E493A3C8C582C8CAC583CA45
:1000E200F0A3C8C582C8CAC583CADFE9DEE780BEFD
:01021B0000E2
:00000001FF
