:1000000002093AAD07120D577F90120BEE120D2127
:09001000120D577F91120D182208
:10001B00020B1AC2D5E830E70FB2D5E4C39BFBE461
:10002B009AFAE499F9E498F8EC30E717B2D5120094
:10003B00541202E0E4C39BFBE49AFAE499F9E498C6
:10004B00F880031202E030D50DE4C39FFFE49EFE5F
:07005B00E49DFDE49CFC2282
:10006300020882EC4D6011E8497017ED33EC33045C
:10007300600DE4FCFFFEFD22E933E8330470F8026F
:1000830002161201E158046009E4CC2481500628C9
:10009300500902022028400302021DC0E0EB4A700F
:1000A30044B98006D0E0FB02020CEF4E701CBD8009
:1000B30008EBFFEAFEE9FD80EBE98DF0A4FEE5F035
:1000C30002014FE9CDF9EAFEEBFFEF89F0A4FCE56D
:1000D300F0CE89F0A42EFFE435F0CD89F0A42DFEF7
:1000E300E435F08067EF4E7005BD80D780C3EF8B9A
:1000F300F0A4ACF0EE8BF0A42CFCE435F0F8EF8A1E
:10010300F0A42CE5F038FCE433CB8DF0A42CFCE513
:10011300F03BF8EE8AF0A42CFCE5F038F8E433CF9A
:1001230089F0A42CFCE5F038CF3400CE89F0A42F5D
:10013300FFE5F03EFEE433C98DF0A42EFEE5F03971
:10014300CD8AF0A42FFFE5F03EFEE43DFD33D0E081
:10015300FB50070BBB000F020220EC2CFCEF33FF1C
:10016300EE33FEED33FD0201F875F020800E75F0DD
:1001730010800575F0087D007E007F003392D53036
:10018300D503120280EC334010EF33FFEE33FEED64
:1001930033FDEC33FCD5F0ED22E5F0247EA2D5133C
:1001A300CC92E7CDCEFF22EDD2E7CD33EC3392D51F
:1001B30024814006E4FFFEFDFC22FCE4CFCECDCC3F
:1001C30024E0501174FF80EDC3CC13CCCD13CDCEFE
:1001D30013CECF13CF0470F030D5DE020280E9D204
:1001E300E7C933E833F892D5EDD2E7CD33EC33FCEE
:1001F3005002B2D522EC30E7100FBF000C0EBE0048
:10020300080DBD00040BEB6014A2D5EB13FCED92BB
:10021300E7FD2274FFFCFDFEFF22E480F8A2D57403
:10022300FF13FC7D80E480EFBC000BBE0029EF8D43
:10023300F084FFADF022E4CCF875F008EF2FFFEE69
:1002430033FEEC33FCEE9DEC984005FCEE9DFE0F77
:10025300D5F0E9E4CEFD22EDF8F5F0EE8420D21CD2
:10026300FEADF075F008EF2FFFED33FD400798501A
:1002730006D5F0F222C398FD0FD5F0EA22C3E49F1E
:10028300FFE49EFEE49DFDE49CFC22EB9FF5F0EA77
:100293009E42F0E99D42F0EC6480C864809845F08A
:1002A3002275F008758200EF2FFFEE33FECD33CDBC
:1002B300CC33CCC58233C5829BED9AEC99E5829809
:1002C300400CF582EE9BFEED9AFDEC99FC0FD5F008
:1002D300D6E4CEFBE4CDFAE4CCF9A88222B800C17F
:1002E300B90059BA002DEC8BF084CFCECDFCE5F0EC
:1002F300CBF97818EF2FFFEE33FEED33FDEC33FC33
:10030300EB33FB10D703994004EB99FB0FD8E5E4DB
:10031300F9FA227818EF2FFFEE33FEED33FDEC33BD
:10032300FCC933C910D7059BE99A4007EC9BFCE94C
:100333009AF90FD8E0E4C9FAE4CCFB2275F010EF88
:100343002FFFEE33FEED33FDCC33CCC833C810D7CB
:10035300079BEC9AE899400AED9BFDEC9AFCE8991F
:10036300F80FD5F0DAE4CDFBE4CCFAE4C8F9227552
:100373004A19E5577054754B18754C15754D15AEE4
:1003830025AF267C037DE812022B8F4EAE25AF26C8
:100393007C037DE812022B7E007F64CFCDCFCECCD1
:1003A300CE12022BEF240AF54FAE25AF267C007D3B
:1003B3006412022B7E007F0ACFCDCFCECCCE1202A9
:1003C3002B8F50AE25AF26020600E557B4012175E9
:1003D3004B16754C15754D15754E15754F15E55620
:1003E30075F00A84F550E55675F00A8485F05122BC
:1003F300E55764026003020627754B17AE58AF59E1
:10040300FCFD7B9F7A867901F8C312028E400302BA
:10041300049DAE58AF59E4FCFD0BF812001E8F4C3F
:10042300AE58AF59E4FCFD7BA07A867901F812003F
:100433001EAC00AD01AE02AF03E47B107A27F9F8DE
:1004430012001E8F4DAE58AF597C277D1012022B20
:100453007E037FE8CFCDCFCECCCE12022B8F4EAE14
:1004630058AF597C037DE812022B7E007F64CFCD09
:10047300CFCECCCE12022B8F4FAE58AF597C007D1E
:100483006412022B7E007F0ACFCDCFCECCCE1202D8
:100493002B8F50AE58AF59020600AE58AF59E4FC4B
:1004A300FD7B9F7A867901F8D312028E4070D3E5E3
:1004B30059940FE55894274065754C15AE58AF59BC
:1004C3007C277D1012022B8F4DAE58AF597C277DB0
:1004D3001012022B7E037FE8CFCDCFCECCCE1202FB
:1004E3002B8F4EAE58AF597C037DE812022B7E0052
:1004F3007F64CFCDCFCECCCE12022B8F4FAE58AF71
:10050300597C007D6412022B7E007F0ACFCDCFCEB3
:10051300CCCE12022B8F50AE58AF59020600C3E562
:1005230059940FE55894275057E55994E7E55894A3
:1005330003404D754C15754D15AE58AF597C037D71
:10054300E812022B8F4EAE58AF597C037DE812029E
:100553002B7E007F64CFCDCFCECCCE12022B8F4F1C
:10056300AE58AF597C007D6412022B7E007F0ACF08
:10057300CDCFCECCCE12022B8F50AE58AF59807D4B
:10058300C3E55994E7E55894035040E5599463E56E
:100593005894004036754C15754D15754E15AE586B
:1005A300AF597C007D6412022B8F4FAE58AF597C3C
:1005B300007D6412022B7E007F0ACFCDCFCECCCE3E
:1005C30012022B8F50AE58AF598032C3E559946352
:1005D300E55894005031E5599409E55894004027B3
:1005E300754C15754D15754E15754F15AE58AF599C
:1005F3007C007D0A12022B8F50AE58AF597C007DD0
:100603000A12022B8D5122C3E5599409E55894002F
:100613005012754C15754D15754E15754F15755052
:100623001585595122754A17754B15AE27AF28E426
:10063300FCFD7B9F7A867901F8C312028E5033AE9C
:1006430027AF28E4FCFD0BF812001E8F4CAE27AF3A
:1006530028E4FCFD7BA07A867901F812001EAC0029
:10066300AD01AE02AF03E47B107A27F9F812001E46
:10067300802DAE27AF28E4FCFD7B9F7A867901F8B5
:10068300D312028E4032D3E528940FE527942740F6
:1006930027754C15AE27AF287C277D1012022B8FB0
:1006A3004DAE27AF287C277D1012022B7E037FE8F7
:1006B300CFCDCFCECCCE8023C3E528940FE52794AE
:1006C300275034E52894E7E5279403402A754C1511
:1006D300754D15AE27AF287C037DE812022B8F4E94
:1006E300AE27AF287C037DE812022B7E007F64CF08
:1006F300CDCFCECCCE8026C3E52894E7E52794035F
:100703005037E5289463E5279400402D754C157503
:100713004D15754E15AE27AF287C007D6412022B54
:100723008F4FAE27AF287C007D6412022B7E007FA3
:100733000ACFCDCFCECCCE8029C3E5289463E5275D
:1007430094005031E5289409E52794004027754C1F
:1007530015754D15754E15754F15AE27AF287C00D1
:100763007D0A12022B8F50AE27AF287C007D0A1220
:10077300022B8D5122C3E5289409E52794005012DA
:10078300754C15754D15754E15754F1575501585A9
:1007930028512220B01C7F05120D7D20B00C2001B2
:1007A30004D2018005300102C20130B00302088186
:1007B30080F820B1557F05120D7D20B12820010E50
:1007C300200204D202801E30021BC20280173001B5
:1007D300140552E552C39433400375520175230146
:1007E300E4F52BF52C20B11E3001FAE523B40211F8
:1007F3007F60120D7D0552E552C394334003755259
:1008030001120C3C80DFE4F5232220B2227F051283
:100813000D7D20B215AD247F01120D2DAD287F0271
:10082300120D2DAD2A7F03120D2D20B25180FB2016
:10083300B34C7F05120D7D20B34120013E20021DE4
:10084300E54870057548018032E548B401057548EF
:10085300028028E54864027022F548801E30021B9E
:10086300E55770057557018012E557B401057557B3
:10087300028008E557B40203E4F55730B3FD22C004
:10088300E0C0F0C0D075D000C000C00743A0E07541
:1008930080FF43A0C053A0DFAF537401A8070880B3
:1008A30002C333D8FCF58043A0E0744A2553F8E62D
:1008B300242DF8E6F5800553E553B408037553007A
:1008C300052CE52C7002052BE523B4010DE52CB4B2
:1008D3002008E52BB40303752302E55275F00AA43F
:1008E300FFD3E5249FE5F06480F8748098403105D8
:1008F30055E5557002055464C84554702F20000710
:10090300D20053497F800830000EC2004349804320
:10091300A08053A09F854980755400755500800CB5
:1009230043498043A08053A09F854980D007D000CE
:10093300D0D0D0F0D0E032787FE4F6D8FD7581597D
:10094300020981020B5BE493A3F8E493A34003F64B
:100953008001F208DFF48029E493A3F85407240C00
:10096300C8C333C4540F4420C8834004F4568001E1
:1009730046F6DFE4800B0102040810204080900952
:10098300C6E47E019360BCA3FF543F30E509541FC6
:10099300FEE493A360010ECF54C025E060A840B8E5
:1009A300E493A3FAE493A3F8E493A3C8C582C8CA63
:1009B300C583CAF0A3C8C582C8CAC583CADFE9DE36
:1009C300E780BE0149FF1B2DC0F9A4B0999282F8BC
:1009D300809040792430191202780010BFFFC18E35
:1009E300C6898C084A1515151515151515015300DB
:1009F300014800015700C101C1020229000001247E
:100A030000022700000258000001560002250000E2
:100A1300015200012300022B0000C1000254000018
:100A23000221000000754A18754B15754C15754D5C
:100A330015AE29AF2A7C037DE812022B8F4EAE2917
:100A4300AF2A7C037DE812022B7E007F64CFCDCFDB
:100A5300CECCCE12022BEF240AF54FAE29AF2A7C5F
:100A6300007D6412022B7E007F0ACFCDCFCECCCE89
:100A730012022B8F50AE29AF2A7C007D0A12022B63
:100A83008D512220014220023AE54870055349FE68
:100A9300800343490143A08053A09F854980E548D3
:100AA300B402055349FD800343490243A08053A088
:100AB3009F854980E548B401055349FB800D4349AF
:100AC300048008434907800343490743A08053A098
:100AD3009F85498022120C157FCC120CC67F4412CD
:100AE3000CC67F147E00120CE8120C157FCC120C7E
:100AF300C67FBE120CC6120CFEA907120CFE5307CA
:100B03000FEFAD01FCE4120171E4FBFA79C8784000
:100B13001200661201AA22C0E0C0D075D000C0073F
:100B23000522E5227002052164E87004E5216403CF
:100B3300701FC28CF521F522AF8CF5278F28E5288D
:100B4300752800F527AF8AEF4228E4F58CF58AD2A1
:100B53008CD007D0D0D0E032120C85120D907F05D7
:100B6300120D7D120D42120D6A7F03120003AC07B2
:100B7300E41201767B487AE179FA783F1200661233
:100B830001AA8F24120AD88E298F2A120796120BD4
:100B9300C4120A8680D3754A16754B15754C1575A4
:100BA3004D15754E15754F15E52475F06484240AAB
:100BB300F550E52475F06484E5F075F00A84F55189
:100BC30022200120200217E5487003020A28E54885
:100BD300B40103020B99E548B4020F020628300260
:100BE30009020372300103120C3C22120C62120B35
:100BF300F9AF05120C62D2A10000000000D2A000E0
:100C03000000000030A107C2A0120D21C322C2A020
:100C1300D322C203D2947F0C7E00120CE8C2947FCD
:100C2300507E00120CE8D2947F0A7E00120CE8A2D8
:100C3300949203120CE4A20322754A1A754B15759C
:100C43004C15754D15754E15754F15E55275F00A12
:100C530084240AF550E55275F00A8485F05122E4A4
:100C6300FEEF30E704D2A18002C2A1000000000021
:100C7300D2A0EF25E0FF0000000000C2A00EBE08D6
:100C8300E02243A0A053A0BFE4F58043A08053A07B
:100C93009F7580FF43A0C053A0DF7580FF43A0E092
:100CA3007580FF22E4FED2A00000000000EF25E0E3
:100CB300FF30A103430701C2A000000000000EBEE5
:100CC30008E422A907E4FBC294E9139294120CE40A
:100CD300D294E9C313F90BBB08ED7F057E00020C28
:100CE300E87F057E00EF1FAA0670011E4A600BE431
:100CF300FDEDC3940850EE0D80F722E4FBC294ECA3
:100D0300C313FCD294309403430480120CE40BBB52
:100D130008EBAF0422120C62120BF9120CA7C2A14A
:100D2300D2A00000000000D2A122AC07120D577F11
:100D3300A0120C62120BF9AF04120BEE020D215339
:100D43008EBF53890F758B18758DFCC28FD28ED2CF
:100D5300ABD2AF22D2A1D2A00000000000C2A100FA
:100D630000000000C2A022538E7F5389F0438905FF
:100D7300E4F58AF58CC28DD28C22E4FEEEC39F503B
:100D83000B7D0C7CA9DCFEDDFC0E80F022438E047F
:0F0D930075D72075D6D1438E1043AF04D2AF224F
:00000001FF
