:10000000020B70E4F58CF58A1209D6D28C3091037C
:10001000308DFAC28C20911FAF8CEFAD8AFCE412B8
:1000200002E27B967A43798B783C12015E12031BC5
:10003000782BEEF208EFF2308D0BC28D782B7427FF
:10004000F208740FF2782BE2FE08E2FF22AD0712ED
:100050000DEE7F90120C7D120C077F40120BFC02FC
:020060000F4B44
:10006300020E5B020387E86480F8E933E83360112A
:100073000460F0ED33EC337009E8FCE9FDEAFEEBD4
:10008300FF220460DED3EB9FEA9EE99DE8C2E78C82
:10009300F0C2F795F0400CE8CCF8E9CDF9EACEFAD6
:1000A300EBCFFB12035285D0F05804700320D5B375
:1000B300E80470075002B2D502039192D5EC0460B4
:1000C300F7E4CCC0E0C398F8603B94186008400D97
:1000D300D0E0FB020369E4FBFAC9FC8028E830E4C2
:1000E30006E4C9FBE4CAFCE830E305E4C9CACBFC77
:1000F300E854076010F8C3E913F9EA13FAEB13FBAA
:10010300EC13FCD8F130F52FC3E49CFCEF9BFFEE1E
:100113009AFEED99FDD0E0FBEF4E4D4C701222DBC1
:100123000302038EEC2CFCEF33FFEE33FEED33FDC5
:10013300ED30E7EB020369EF2BFFEE3AFEED39FDFD
:10014300D0E0FB50130BBB0003020391ED13FDEE54
:1001530013FEEF13FFEC13FC020369EC4D6011E88F
:10016300497017ED33EC3304600DE4FCFFFEFD2210
:10017300E933E8330470F80203871203525804602A
:1001830009E4CC2481500628500902039128400336
:1001930002038EC0E0EB4A7044B98006D0E0FB0254
:1001A300037DEF4E701CBD8008EBFFEAFEE9FD8086
:1001B300EBE98DF0A4FEE5F0020247E9CDF9EAFE92
:1001C300EBFFEF89F0A4FCE5F0CE89F0A42EFFE469
:1001D30035F0CD89F0A42DFEE435F08067EF4E7045
:1001E30005BD80D780C3EF8BF0A4ACF0EE8BF0A4F9
:1001F3002CFCE435F0F8EF8AF0A42CE5F038FCE4AD
:1002030033CB8DF0A42CFCE5F03BF8EE8AF0A42C64
:10021300FCE5F038F8E433CF89F0A42CFCE5F038A2
:10022300CF3400CE89F0A42FFFE5F03EFEE433C9BE
:100233008DF0A42EFEE5F039CD8AF0A42FFFE5F072
:100243003EFEE43DFD33D0E0FB50070BBB000F0245
:100253000391EC2CFCEF33FFEE33FEED33FD020391
:100263006974F8CC6480CCC86480C8F58204604F9C
:10027300C3EB9FF5F0EA9E42F0E99D42F0E89C450E
:10028300F0603C501DE5825FFFE582D313CB5BCB6F
:10029300F42B5582FB50280ABA002409B900200820
:1002A300801DE5825BFBE582D313CF5FCFF4C313DD
:1002B3002F5582FF50090EBE00050DBD00010CC372
:1002C300EB9FF5F0EA9E42F0E99D42F0E89C45F091
:1002D3006007CC4820E701B3EC2275F020800E754F
:1002E300F010800575F0087D007E007F003392D505
:1002F30030D503120403EC334010EF33FFEE33FE2B
:10030300ED33FDEC33FCD5F0ED22E5F0247EA2D5F0
:1003130013CC92E7CDCEFF22EDD2E7CD33EC33926F
:10032300D524814006E4FFFEFDFC22FCE4CFCECDC4
:10033300CC24E0501174FF80EDC3CC13CCCD13CD8E
:10034300CE13CECF13CF0470F030D5DE020403E911
:10035300D2E7C933E833F892D5EDD2E7CD33EC33A6
:10036300FC5002B2D522EC30E7100FBF000C0EBEDA
:1003730000080DBD00040BEB6014A2D5EB13FCEDDC
:1003830092E7FD2274FFFCFDFEFF22E480F8A2D574
:1003930074FF13FC7D80E480EFEF8DF0A4A8F0CF11
:1003A3008CF0A428CE8DF0A42EFE22BC000BBE0040
:1003B30029EF8DF084FFADF022E4CCF875F008EF5F
:1003C3002FFFEE33FEEC33FCEE9DEC984005FCEE84
:1003D3009DFE0FD5F0E9E4CEFD22EDF8F5F0EE84B5
:1003E30020D21CFEADF075F008EF2FFFED33FD407A
:1003F30007985006D5F0F222C398FD0FD5F0EA22F4
:10040300C3E49FFFE49EFEE49DFDE49CFC22782D63
:100413007419F27845E2600302049F782E741BF28C
:1004230078317415F2D37843E2946318E294004070
:1004330034E2FA08E2FB7C007D64FFAE021203AEF5
:100443007832EFF27C007D64AF03AE021203AE7E1E
:10045300007F0ACFCDCFCECCCE1203AE7833EFF2EE
:1004630078420206587842E2FE08E2FFD39409EE8E
:1004730094004013D3EF9463EE9400500A783274DF
:1004830015F278420205127842E2FE08E2FFD394A5
:1004930009EE940040030206AC0205397845E26494
:1004A300016003020546782E741CF278317415F24C
:1004B300D3783BE2946318E294004034E2FA08E212
:1004C300FB7C007D64FFAE021203AE7832EFF27C58
:1004D300007D64AF03AE021203AE7E007F0ACFCD70
:1004E300CFCECCCE1203AE7833EFF2783A02065871
:1004F300783AE2FE08E2FFD39409EE94004025D354
:10050300EF9463EE9400501C78327415F2783AE25B
:10051300FA08E2FB7C007D0AFFAE021203AE7833D9
:10052300EF02069C783AE2FE08E2FFD39409EE94C8
:100533000040030206AC78327415F208F208EFF2B9
:100543000206AC7845E2640260030206AC782E74BE
:1005530014F27836E2FC08E2FD08E2FE08E2FF123C
:10056300031B7C007D0A12039C7802EEF208EFF273
:10057300E4FFFE7DC67C427836E2FB08E2F908E23E
:10058300FA08E2CBF8120264605940577802E2FAA3
:1005930008E2FB7C037DE8FFAE021203AE7831EF85
:1005A300F27C037DE8AF03AE021203AE7E007F64EC
:1005B300CFCDCFCECCCE1203AE7832EFF27802E2BB
:1005C300FA08E2FB7C007D64FFAE021203AE7E00FC
:1005D3007F0ACFCDCFCECCCE1203AEEF240A783331
:1005E30002069CE4FFFE7D107C417836E2FB08E2C4
:1005F300F908E2FA08E2CBF812026460634061E4AE
:10060300FFFE7DC67C427836E2FB08E2F908E2FA97
:1006130008E2CBF81202646002504578317415F297
:100623007802E2FA08E2FB7C007D64FFAE0212036B
:10063300AE7832EFF27C007D64AF03AE021203AEFC
:100643007E007F0ACFCDCFCECCCE1203AEEF240AED
:100653007833F27802E2FE08E2FF7C007D0A8042F2
:10066300E4FFFE7D107C417836E2FB08E2F908E204
:10067300FA08E2CBF81202646002502D7831741547
:10068300F208F27802E2FA08E2FB7C007D0AFFAE90
:10069300021203AEEF240A7833F27C007D0AAF0323
:1006A300AE021203AE7834EDF2782F7415F208F22D
:1006B3002212106C1210D41210E61210267801E2E6
:1006C3006401700218E270627800F208F2D37826AF
:1006D300E2940A18E2940050047F33804AC37826D8
:1006E300E2945018E2940040047FFF803A7825E2B8
:1006F300FE08E2FFC39450EE9400502EEF940AEEEE
:100703009400402618E2FC08E2FDE41202E27B6654
:100713007A66792B784212015E7B527AB879B67881
:100723004012006D12031B12004D1210491208C033
:10073300120F847807E27804F27F0112108E784654
:10074300EFF27807F22000030207D8782AE2FF7855
:1007530047E28FF084E5F070031210F6300018784A
:100763002508E2FF7844E2243CF8EFF27844E204FF
:10077300F2E2B40302E4F27806E2FF2405FDE43377
:10078300FC783CE2FEC39DEC6480F8748098503E94
:10079300EF24FBF9EED39940357806E22405FFE414
:1007A30033FE783DE2FDC39FEE6480F87480985079
:1007B3001DED994019783EE2FD9FEE6480F8748048
:1007C30098500BED9940077827E254EF803E782745
:1007D300E24410803720003E7804E2FF7807E2C34A
:1007E3009F50097846E2B4B4031210F6200018783B
:1007F3002508E2FF7844E2243FF8EFF27844E2046C
:10080300F2E2B40602E4F27827E24410F243A08055
:1008130053A09FE2F5807846E2C394B47827E24080
:100823000454DF80024420F243A08053A09FE2F5EA
:10083300802001107805E2B4010A2000077827E23E
:1008430054F780057827E24408F243A08053A09F21
:10085300E2F58020010C7805E270077827E254FE68
:1008630080057827E24401F243A08053A09FE2F57C
:100873008020010D7805E2B401077827E254FD805A
:10088300057827E24402F243A08053A09FE2F5805B
:100893002001187805E2B402127827E254FBF243F0
:1008A300A08053A09FE2F5800206C07827E24404AB
:1008B300F243A08053A09FE2F5800206C0C2C4D2D7
:1008C300C220C44520B2427F051210C120C4342087
:1008D300B23120011F7805E2FF700404F28024EF97
:1008E300B4010778057402F28019EFB40215E478B5
:1008F30005F2800F30010C200204D2028005300281
:1009030002C20220C40330B2FA20C42020B31D7FE8
:10091300051210C120C40F20B30C200104D20180A2
:1009230005300102C20120C40330B3FAD2C4C2C2EB
:1009330020C25120B24E7F051210C120C24020B206
:100943003D30013A200225782AE2FFB40205740300
:10095300F2800CEFC394034006782AE22402F27873
:100963002AE2D3940940177402F2801230020F78FE
:1009730006E2240AF2E2D394504003740AF220C23E
:100983000330B2FA20C24B20B3487F051210C120B6
:10099300C23A20B3372001347805E2FFB4010C20BA
:1009A3000004D2008005300002C200EFB4021D78BB
:1009B30045E2FF700404F28013EFB4010778457435
:1009C30002F28008EFB40204E47845F220C2033057
:1009D300B3FA227F08D2900000000000000000005C
:1009E3000000000000000000000000000000000004
:1009F30000000000000000000000000000000000F4
:100A030000000000000000000000000000000000E3
:100A130000000000000000000000000000000000D3
:100A230000000000000000000000000000000000C3
:100A33000000000000000000000000C29000000061
:100A430000000000000000000000000000000000A3
:100A53000000000000000000000000000000000093
:100A63000000000000000000000000000000000083
:100A73000000000000000000000000000000000073
:100A83000000000000000000000000000000000063
:100A93000000000000000000000000000000000053
:100AA30000AE071FEE60030209D822782D7416F2F8
:100AB3002000050804F28008300005782E7418F22F
:100AC300782F7415F208F208F2D37826E2946318AB
:100AD300E29400403CE2FA08E2FB7C007D64FFAE56
:100AE300021203AE7832EFF27C007D64AF03AE02F4
:100AF3001203AE7E007F0ACFCDCFCECCCE1203AE93
:100B03007833EFF27825E2FE08E2FF7C007D0A806D
:100B13003A7825E2FE08E2FFD39409EE94004033CD
:100B2300D3EF9463EE9400502A78327415F278254B
:100B3300E2FA08E2FB7C007D0AFFAE021203AE7804
:100B430033EFF27C007D0AAF03AE021203AE7834BA
:100B5300EDF2227825E2FE08E2FFD39409EE940039
:100B6300500A78327415F208F208EFF222787FE423
:100B7300F6D8FD758120020BB70206B4E493A3F8FF
:100B8300E493A34003F68001F208DFF48029E493A1
:100B9300A3F85407240CC8C333C4540F4420C88398
:100BA3004004F456800146F6DFE4800B010204089A
:100BB30010204080900D75E47E019360BCA3FF5428
:100BC3003F30E509541FFEE493A360010ECF54C0E8
:100BD30025E060A840B8E493A3FAE493A3F8E49370
:100BE300A3C8C582C8CAC583CAF0A3C8C582C8CA78
:100BF300C583CADFE9DEE780BE120C7D120C07AFA6
:100C030005120C7DD2A100000000000000000000CE
:100C130000000000000000000000000000000000D1
:100C230000000000000000000000000000000000C1
:100C33000000000000000000D2A00000000000003F
:100C430000000000000000000000000000000000A1
:100C53000000000000000000000000000000000091
:100C630000000000000000000000000030A107C2E7
:100C7300A0120F4BC322C2A0D322E4FEEF30E7043D
:100C8300D2A18002C2A10000000000000000000009
:100C93000000000000000000000000000000000051
:100CA3000000000000000000000000000000000041
:100CB3000000000000000000D2A0EF25E0FF0000CC
:100CC3000000000000000000000000000000000021
:100CD3000000000000000000000000000000000011
:100CE3000000000000000000000000000000000001
:100CF300C2A00EEEB4088522E4FED2A000000000DC
:100D030000000000000000000000000000000000E0
:100D130000000000000000000000000000000000D0
:100D23000000000000000000000000000000EF25AC
:100D3300E0FF30A1034401FFC2A000000000000057
:100D430000000000000000000000000000000000A0
:100D53000000000000000000000000000000000090
:100D63000000000000000000000000000EEEB408C8
:100D730089228747001414000000008127FF9D0883
:100D8300C0F9A4B0999282F8809040792430191266
:100D930002780010BFFFC7C68E898CFEF7882D1519
:100DA3001515151515151581350082250000822BA3
:100DB300000082420000823A0000843600000000F6
:100DC30082020000C101810500C102C1008145000A
:100DD300812A0281060A814600810400810700817D
:100DE3004400822800008200000000D2A1D2A000AB
:100DF30000000000000000000000000000000000F0
:100E030000000000000000000000000000000000DF
:100E130000000000000000000000000000000000CF
:100E230000C2A1000000000000000000000000005C
:100E330000000000000000000000000000000000AF
:100E4300000000000000000000000000000000009F
:100E53000000000000C2A022C0E0C0D075D000C0D6
:100E630000C006C00743A0E07580FF43A0C053A0A5
:100E7300DF7835E2FF7401A807088002C333D8FC8A
:100E8300F58043A0E0742D2FF8E22408F8E2F58002
:100E93007835E204F2B40802E4F2782808E2240187
:100EA300FFF218E23400FEF2BE010ABFF307780036
:100EB300E4F20804F2D007D006D000D0D0D0E0325C
:100EC3007849E2FF75F00A84782DF2EF75F00A8411
:100ED30008E5F0F2087414F27848E2FF75F00A842A
:100EE3007830F2EF75F00A8408E5F0F2087414F232
:100EF3007847E2FF75F00A847833F2EF75F00A84DD
:100F030008E5F0F222E4FDC29300C29700D29300F9
:100F13001210ADE4FFC297EDC313FD30A303448069
:100F2300FDD2970FEFB408EDC29300C293C29700AE
:100F3300D29700C2A300D2A300EDC4540F75F00AE8
:100F4300A4FFED540F2FFF22C2A1D2A00000000086
:100F5300000000000000000000000000000000008E
:100F6300000000000000000000000000000000007E
:100F73000000000000000000000000000000D2A1FB
:100F83002220011A7805E27003020EC37805E2B449
:100F93000103020AAE7805E2B40212020411300121
:100FA3000C200203020FB1300203120FD922782D55
:100FB300741AF2087401F2087415F208F208F208C0
:100FC300F2782AE2FF75F00A847833F2EF75F00ABB
:100FD3008408E5F0F222782D741AF2087402F208FC
:100FE3007415F208F208F208F27806E2FF75F00AC7
:100FF300847833F2EF75F00A8408E5F0F222C293A5
:1010030000C29700D293001210ADED75F00A84C4AC
:1010130054F0FFED75F00A84E5F04FFDFF1210ADBB
:10102300C29322E4FC7B80FD7F8E121001AF037418
:10103300472CF8E2FD1210010B0B0CECB407EE7D0C
:10104300807F8E021001E4FC7B81FD7F8E121001F4
:10105300AF03120F0874472CF8EFF20B0B0CECB430
:1010630007EE7D807F8E02100143A0A053A0BFE452
:10107300F58043A08053A09F7580FF43A0C053A079
:10108300DF7580FF43A0E07580FF22AD07120DEEF0
:101093007F90120BFC120F4B120DEE7F91120C7D01
:1010A300120C07120CFB120F4B22E4FEC297EF1334
:1010B30092A3EFC313FFD2970EEEB408EF22E4FE20
:1010C300EEC39F500B7D0C7CA9DCFEDDFC0E80F093
:1010D30022438E0475D72075D6D1438E1043AF04B7
:1010E300D2AF22538E7F5389F0E4F58AF58CC28DFB
:0E10F300C28C221200037825EEF208EFF222E2
:00000001FF
