:030000000201B743
:0C01B700787FE4F6D8FD7581280201FE77
:10030D00011E0F1608C0F9A4B0999282F880904092
:10031D00792430191202780010BFFF081F00010266
:08032D00030405060701270087
:10036A001203361203581202C812024312006680A0
:01037A00F58D
:1003360043A0A053A0BFE4F58043A08053A09F75BF
:1003460080FF43A0C053A0DF7580FF43A0E0758007
:02035600FF2284
:10035800438E0475D72075D6D1438E1043AF04D28F
:02036800AF22C2
:0300630002000395
:10000300C0E0C0D075D000C000C00743A0E0758039
:10001300FF43A0C053A0DFAF277401A807088002E5
:10002300C333D8FCF58043A0E0741F2527F8E624EA
:1000330008F8E6F5800527E527B40803752700D0FF
:0800430007D000D0D0D0E0325C
:10004B00E4FEEEC39F500B7D0C7CA9DCFEDDFC0EA9
:02005B0080F033
:01005D002280
:1002C80020B00E7F0512004B20B003751F0130B01F
:1002D800FD20B10E7F0512004B20B10375200130BF
:1002E800B1FD20B20E7F0512004B20B2037521012B
:1002F80030B2FD20B30E7F0512004B20B3037522E8
:050308000130B3FD22ED
:10024300C2C4D2C275B07F20C41720B0147F051278
:10025300004B20C40620B003751F0120C40330B037
:10026300FAD2C4C2C275B0BF20C21720B0147F0532
:1002730012004B20C20620B003751F0220C40330B6
:10028300B0FAD2C4D2C275B0DF20B51720B0147F44
:100293000512004B20B50620B003751F0320B503DC
:1002A30030B0FAD2C4D2C275B0EF20B41720B01464
:1002B3007F0512004B20B40620B003751F0420B441
:0502C3000330B0FA2237
:1000660075B07FC2C4D2C2E5B0540FF528640F60E4
:10007600437F0512004BE5B0540FF528640F602648
:1000860085B028E5282489601A24FC601124FE60C6
:1000960008147012751F01800D75200280087521E5
:1000A600038003752204E528640F6008E5B0540F49
:1000B600F52880F275B0BFD2C4C2C2E5B0540FF5C0
:1000C60028640F60437F0512004BE5B0540FF528F6
:1000D600640F602685B028E5282449601A24FC6050
:1000E6001124FE6008147012751F05800D75200618
:1000F60080087521078003752208E528640F6008CB
:10010600E5B0540FF52880F275B0DFD2C4D2C2E54F
:10011600B0540FF528640F60437F0512004BE5B01D
:10012600540FF528640F602685B028E52824296039
:100136001A24FC601124FE600814701275230180D5
:100146000D75240280087525038003752604E528AD
:10015600640F6008E5B0540FF52880F275B0EFC261
:10016600C4D2C2E5B0540FF528640F60437F051270
:10017600004BE5B0540FF528640F602685B028E5DE
:10018600282419601A24FC601124FE6008147012D9
:1001960075230B800D75240C800875250D8003755D
:1001A600260EE528640F6008E5B0540FF52880F2A6
:0101B6002226
:1001C30002036AE493A3F8E493A34003F68001F2E5
:1001D30008DFF48029E493A3F85407240CC8C3333D
:1001E300C4540F4420C8834004F456800146F6DF0C
:1001F300E4800B010204081020408090030DE47E8C
:10020300019360BCA3FF543F30E509541FFEE49300
:10021300A360010ECF54C025E060A840B8E493A3C7
:10022300FAE493A3F8E493A3C8C582C8CAC583CAF2
:10023300F0A3C8C582C8CAC583CADFE9DEE780BEAA
:0103350000C7
:00000001FF
