:10000000020653E4FDC29300C29700D29300120C83
:100010000CE4FFC297EDC313FD30A303430580D268
:10002000970FBF08EEC29300C293C29700D2970009
:10003000C2A300D2A300EDC4540FFFED540FFEEF96
:1000400075F00AA42EFF227F057E00EF1FAA06701E
:10005000011E4A600BE4FDEDC3940850EE0D80F7DD
:01006000227D
:1000630002044AEC4D6011E8497017ED33EC330498
:10007300600DE4FCFFFEFD22E933E8330470F8026F
:10008300028F12025A58046009E4CC2481500628D6
:100093005009020299284003020296C0E0EB4A701D
:1000A30044B98006D0E0FB020285EF4E701CBD8090
:1000B30008EBFFEAFEE9FD80EBE98DF0A4FEE5F035
:1000C30002014FE9CDF9EAFEEBFFEF89F0A4FCE56D
:1000D300F0CE89F0A42EFFE435F0CD89F0A42DFEF7
:1000E300E435F08067EF4E7005BD80D780C3EF8B9A
:1000F300F0A4ACF0EE8BF0A42CFCE435F0F8EF8A1E
:10010300F0A42CE5F038FCE433CB8DF0A42CFCE513
:10011300F03BF8EE8AF0A42CFCE5F038F8E433CF9A
:1001230089F0A42CFCE5F038CF3400CE89F0A42F5D
:10013300FFE5F03EFEE433C98DF0A42EFEE5F03971
:10014300CD8AF0A42FFFE5F03EFEE43DFD33D0E081
:10015300FB50070BBB000F020299EC2CFCEF33FFA3
:10016300EE33FEED33FD02027174F8CC6480CCC82B
:100173006480C8F58204604FC3EB9FF5F0EA9E42AA
:10018300F0E99D42F0E89C45F0603C501DE5825F3C
:10019300FFE582D313CB5BCBF42B5582FB50280AAC
:1001A300BA002409B9002008801DE5825BFBE582C3
:1001B300D313CF5FCFF4C3132F5582FF50090EBE65
:1001C30000050DBD00010CC3EB9FF5F0EA9E42F064
:1001D300E99D42F0E89C45F06007CC4820E701B375
:1001E300EC2275F020800E75F010800575F0087D07
:1001F300007E007F003392D530D5031202F9EC3331
:100203004010EF33FFEE33FEED33FDEC33FCD5F05E
:10021300ED22E5F0247EA2D513CC92E7CDCEFF22CA
:10022300EDD2E7CD33EC3392D524814006E4FFFED3
:10023300FDFC22FCE4CFCECDCC24E0501174FF8032
:10024300EDC3CC13CCCD13CDCE13CECF13CF0470CF
:10025300F030D5DE0202F9E9D2E7C933E833F89288
:10026300D5EDD2E7CD33EC33FC5002B2D522EC30DE
:10027300E7100FBF000C0EBE00080DBD00040BEB12
:100283006014A2D5EB13FCED92E7FD2274FFFCFD95
:10029300FEFF22E480F8A2D574FF13FC7D80E48086
:1002A300EFBC000BBE0029EF8DF084FFADF022E41C
:1002B300CCF875F008EF2FFFEE33FEEC33FCEE9D28
:1002C300EC984005FCEE9DFE0FD5F0E9E4CEFD224F
:1002D300EDF8F5F0EE8420D21CFEADF075F008EFDA
:1002E3002FFFED33FD4007985006D5F0F222C39857
:1002F300FD0FD5F0EA22C3E49FFFE49EFEE49DFDDB
:10030300E49CFC2275B07FC2C4D2C2E5B0540FF5A1
:100313000F640F700302039C7F057E00120BF7E549
:10032300B0540FF50F640F606285B00FE50F248999
:10033300604424FC705520001DE5297005752901D2
:100343008049E529B40105752902803FE529640246
:100353007039F5298035300032E55070057550014C
:100363008029E550B40105755002801FE550B402A1
:100373001AE4F5508015200004D200800E30000BE3
:10038300C200852A53854454852245E50F640F60D6
:1003930008E5B0540FF50F80F275B0BFD2C4C2C2E6
:1003A300E5B0540FF50F640F70030204497F057E17
:1003B30000120BF7E5B0540FF50F640F607A85B0A8
:1003C3000FE50F2449604024FC706D30006AE5504E
:1003D300700E052AE52AD39417405DE4F52A805868
:1003E300E550B4010E0544E544D39463404AE4F573
:1003F300448045E5506402703F0522E522D394080A
:100403004036752204803130002EE550700BE52A0A
:100413007003752A18152A801FE550B4010BE544B3
:1004230070037544641544800FE550B4020AE52255
:10043300B404037522091522E50F640F6008E5B0C3
:10044300540FF50F80F222C0E0C0F0C083C082C019
:10045300D075D000C000C001C002C003C004C005F5
:10046300C006C00743A0E07580FF43A0C053A0DFD0
:10047300AF4F7401A807088002C333D8FCF580434B
:10048300A0E07447254FF8E6242BF8E6F580054FE6
:10049300E54FB40803754F000552E552700205514C
:1004A300E4FFFE7DAF7C43AB28AA27A926A825122B
:1004B300016C6020401EE55264B87004E551640B82
:1004C30070445346FB43A08053A09F854680F5515B
:1004D300F5528032E4FFFE7DAF7C43AB28AA27A907
:1004E30026A82512016C6002501CE552B4B817E52A
:1004F30051B40B1243460443A08053A09F8546800A
:10050300755100755200D007D006D005D004D00332
:10051300D002D001D000D0D0D082D083D0F0D0E0B0
:1005230032E553D39408401CE50AD395534006E5BE
:100533000A94184022E50AC394004020E50A94086F
:10054300501A8013E553C394085016E50A95534097
:100553000BE50A940850055346FE800D434601807F
:1005630008E553B4080C43460143A08053A09F857C
:100573004680C3E5249554E523940050055346FD76
:10058300800343460243A08053A09F8546802001F9
:1005930014E54514FF7401A807088002C333D8FC8F
:1005A300F45246801430011AE54514FF7401A8077C
:1005B300088002C333D8FC424643A08053A09F85E2
:1005C300468022754717754815AF28AE27AD26AC70
:1005D30025120223AB07AA067C007D641202A4EF56
:1005E300240AF5497C007D64AF03AE021202A47EA7
:1005F300007F0ACFCDCFCECCCE1202A48F4AAF2834
:10060300AE27AD26AC251202237C007D0A1202A47C
:100613008D4B754C15754D15E4FFFE7DAF7C43ABDB
:1006230028AA27A926A82512016C60084006754E42
:1006330001D20122E4FFFE7DAF7C43AB28AA27A9A8
:1006430026A82512016C60025005E4F54EC2012272
:10065300787FE4F6D8FD75815402069A02099FE477
:1006630093A3F8E493A34003F68001F208DFF48038
:1006730029E493A3F85407240CC8C333C4540F4488
:1006830020C8834004F456800146F6DFE4800B0162
:10069300020408102040809008BBE47E019360BCF4
:1006A300A3FF543F30E509541FFEE493A360010EFA
:1006B300CF54C025E060A840B8E493A3FAE493A321
:1006C300F8E493A3C8C582C8CAC583CAF0A3C8C542
:1006D30082C8CAC583CADFE9DEE780BEE4FEEF3025
:1006E300E704D2A18002C2A10000000000000000C4
:1006F30000000000000000000000000000000000F7
:1007030000000000000000000000000000000000E6
:1007130000000000000000000000D2A0EF25E0FF71
:1007230000000000000000000000000000000000C6
:1007330000000000000000000000000000000000B6
:1007430000000000000000000000000000000000A6
:100753000000C2A00EBE0886221206DFD2A100004E
:100763000000000000000000000000000000000086
:100773000000000000000000000000000000000076
:100783000000000000000000000000000000000066
:10079300D2A00000000000000000000000000000E4
:1007A3000000000000000000000000000000000046
:1007B3000000000000000000000000000000000036
:1007C3000000000030A107C2A0120A17C322C2A072
:1007D300D322E4FED2A000000000000000000000CD
:1007E3000000000000000000000000000000000006
:1007F30000000000000000000000000000000000F6
:100803000000000000000000EF25E0FF30A10343DB
:100813000701C2A00000000000000000000000006B
:1008230000000000000000000000000000000000C5
:1008330000000000000000000000000000000000B5
:100843000000000000000EBE088A22D2A1D2A00040
:100853000000000000000000000000000000000095
:100863000000000000000000000000000000000085
:100873000000000000000000000000000000000075
:1008830000C2A10000000000000000000000000002
:100893000000000000000000000000000000000055
:1008A3000000000000000000000000000000000045
:1008B3000000000000C2A0220708323B1000000025
:1008C300000146FF192BC0F9A4B0999282F88090D9
:1008D30040792430191202780010BFFFC6868C08B5
:1008E300471515151515151515014F0001210004A0
:1008F300250000000002230000C10001290001506F
:1009030000012A1101441901220401531101541950
:10091300014504C1010251000000120A867FCC1276
:100923000BA67F44120BA67F147E0012004B120A03
:10093300867FCC120BA67FBE120BA6120BC4A9078F
:10094300120BC453070FEFAD01FCE41201EAE4FB01
:10095300FA7920783F120066120223227547167532
:100963004815754915754A15754B15AE23AF247C8B
:10097300007D641202A48F4CAE23AF247C007D64FF
:100983001202A47E007F0ACFCDCFCECCCE1202A41A
:10099300EF240AF54DE524540AF54E22120B841276
:1009A3000C1F120B3E7F01120AD28F21AC21E412DD
:1009B30001EF7B487AE179FA783F1200668F288E3F
:1009C300278D268C2512091D8E238F24120B61126D
:1009D3000307120A5012052480CBE50A75F00A8436
:1009E300F547E50A75F00A8485F048754914E50969
:1009F30075F00A84F54AE50975F00A8485F04B75AC
:100A03004C14E50875F00A84F54DE50875F00A8481
:100A130085F04E22C2A1D2A0000000000000000019
:100A230000000000000000000000000000000000C3
:100A330000000000000000000000000000000000B3
:100A430000000000000000000000D2A122200018D6
:100A5300E52970030209DDE529B4010302095FE515
:100A6300296402701D0205C6300017E550700302A9
:100A73000AF6E550B40103020B1AE550B40203125F
:100A83000BDE22C202D2947F0C7E0012004BC29472
:100A93007F507E0012004BD2947F0A7E0012004BDF
:100AA300A2949202120047A20222C29300C29700AC
:100AB300D29300120C0CED75F00A84FFED75F00A69
:100AC30084EFC454F045F0FDFF120C0CC29322AD29
:100AD3000712084E7F9012075CAF0512075C120ADB
:100AE3001712084E7F911206DF12075F1207D51205
:100AF3000A1722754718754801754915754A157502
:100B03004B15754C15E52A75F00A84F54DE52A75E4
:100B1300F00A8485F04E2275471875480275491509
:100B2300754A15754B15754C15E54475F00A84F532
:100B33004DE54475F00A8485F04E227C80E4FD7F08
:100B43008E120AADE4FBAF0474082BF8E6FD120A1B
:100B5300AD0C0C0BBB08EF7D807F8E020AAD7C8150
:100B6300E4FD7F8E120AADE4FBAF041200037408A8
:100B73002BF8A6070C0C0BBB08EF7D807F8E020AB7
:100B8300AD43A0A053A0BFE4F58043A08053A09F32
:100B93007580FF43A0C053A0DF7580FF43A0E075BD
:100BA30080FF22A907E4FBC294E913929412004741
:100BB300D294E9C313F90BBB08ED7F057E00020055
:100BC3004BE4FBC294ECC313FCD294309403430470
:100BD300801200470BBB08EBAF042275471875481A
:100BE30003754915754A15754B15754C15754D15D6
:100BF30085224E22E4FDEDC39FE49E500B7C0C7BCB
:100C0300A9DBFEDCFC0D80EE22E4FEC297EF13921B
:100C1300A3EFC313FFD2970EBE08F022438E0475D1
:0E0C2300D72075D6D1438E1043AF04D2AF2236
:00000001FF
