:1000000002019CBC000BBE0029EF8DF084FFADF017
:1000100022E4CCF875F008EF2FFFEE33FEEC33FC52
:10002000EE9DEC984005FCEE9DFE0FD5F0E9E4CE88
:10003000FD22EDF8F5F0EE8420D21CFEADF075F057
:1000400008EF2FFFED33FD4007985006D5F0F22260
:08005000C398FD0FD5F0EA2270
:1000630002046C1205E112067012059D7D327F01B8
:100073001206481206037F011206328F221205BFB1
:100083007F0312061C8F21EF75F063A4FFAEF07C93
:10009300007DFF1200038F23120228200034E50A9B
:1000A30075F00A84F53BE50A75F00A8485F03C7522
:1000B3003D14E50975F00A84F53EE50975F00A84F7
:1000C30085F03F754015E52375F00A84F541E52376
:1000D300801F300023753B14753C14753D15753E28
:1000E30015753F15754015E52275F00A84F541E550
:1000F3002275F00A8485F04220036F75A080758015
:10010300FDE523C39522501020020D3001028040EB
:100113003001030200808046E523C395225024303A
:10012300022130010C43A0A053A0BF7580500200F0
:100133008030010302008043A0A053A0BF7580401C
:10014300020080E523D3952250030200803001088A
:1001530043A0A053A0BF802830010302008043A026
:10016300A053A0BFE4F580020080200303020080B7
:1001730075A0807580FEE523C39522500975A0A064
:10018300758010020080E523D3952250030200807E
:1001930075A0A0E4F580020080787FE4F6D8FD75B1
:1001A30081430201E3020066E493A3F8E493A340CE
:1001B30003F68001F208DFF48029E493A3F85407DF
:1001C300240CC8C333C4540F4420C8834004F456DA
:1001D300800146F6DFE4800B010204081020408012
:1001E3009004F8E47E019360BCA3FF543F30E5091B
:1001F300541FFEE493A360010ECF54C025E060A812
:1002030040B8E493A3FAE493A3F8E493A3C8C582A4
:10021300C8CAC583CAF0A3C8C582C8CAC583CADF12
:10022300E9DEE780BE20B01712060320B00C3003CE
:1002330004C2038005200302D20320B06F80FB2099
:10024300B13212060320B12720030E200204D2028A
:10025300801D30021AC2028016300313200004D21C
:1002630000800C300009AD227F01120648C2002035
:10027300B13A80FB20B21A12060320B20F20030406
:10028300D2018008300305300002052220B21D8010
:10029300FB20B31812060320B30F200304C201800E
:1002A30008300305300002152230B3FD2212032764
:1002B3001202BBAF05120327D2A100000000000009
:1002C300000000000000000000000000000000002B
:1002D300000000000000000000000000000000001B
:1002E30000000000000000D2A00000000000000099
:1002F30000000000000000000000000000000000FB
:1003030000000000000000000000000000000000EA
:1003130000000000000030A107C2A0120544C32260
:10032300C2A0D322E4FEEF30E704D2A18002C2A12F
:1003330000000000000000000000000000000000BA
:1003430000000000000000000000000000000000AA
:1003530000000000000000000000000000D2A0EF39
:1003630025E0FF0000000000000000000000000086
:10037300000000000000000000000000000000007A
:10038300000000000000000000000000000000006A
:10039300C2A00EBE089022E4FED2A000000000001E
:1003A300000000000000000000000000000000004A
:1003B300000000000000000000000000000000003A
:1003C3000000000000000000EF25E0FF30A1034320
:1003D3000701C2A0000000000000000000000000B0
:1003E300000000000000000000000000000000000A
:1003F30000000000000000000000000000000000FA
:10040300000EBE089422D2A1D2A00000000000007A
:1004130000000000000000000000000000000000D9
:1004230000000000000000000000000000000000C9
:1004330000000000000000C2A10000000000000056
:1004430000000000000000000000000000000000A9
:100453000000000000000000000000000000000099
:10046300000000000000C2A022C0E0C0D075D00090
:10047300C000C00743A0E07580FF43A0C053A0DFC6
:10048300AF437401A807088002C333D8FCF5804347
:10049300A0E0743B2543F8E62424F8E6F580054301
:1004A300E543B40803754300D007D000D0D0D0E0B3
:1004B30032E4FDC29300C29700D2930012065DE4BA
:1004C300FFC297EDC313FD30A303430580D2970FFB
:1004D300BF08EEC29300C293C29700D29700C2A393
:1004E30000D2A300EDC4540FFFED540FFEEF75F0DF
:1004F3000AA42EFF220708321E0800000000013A5A
:10050300FF1624C0F9A4B0999282F8809040792410
:1005130030191202780010BFFF083B151515151589
:10052300151515014300C183012100012300C18278
:10053300C100012232C101001203271202BB1203C0
:100543009AC2A1D2A0000000000000000000000039
:100553000000000000000000000000000000000098
:100563000000000000000000000000000000000088
:100573000000D2A122C29300C29700D293001206B8
:100583005DED75F00A84FFED75F00A84EFC454F055
:1005930045F0FDFF12065DC29322E4FC7B80FD7FE4
:1005A3008E120578AF0374082CF8E6FD1205780B5C
:1005B3000B0CBC08EF7D807F8E020578E4FC7B8109
:1005C300FD7F8E120578AF031204B474082CF8A6CD
:1005D300070B0B0CBC08EF7D807F8E02057843A0D0
:1005E300A053A0BFE4F58043A08053A09F7580FF74
:1005F30043A0C053A0DF7580FF43A0E07580FF22B6
:100603007F057E00E4FDEDC39FE49E500B7C0C7BD5
:10061300A9DBFEDCFC0D80EE22AD071204097F90FE
:100623001202B01205441204097F9112053B22AD58
:10063300071204097FA01202B01205441204097FB5
:10064300A112053B22AC071204097FA01203271253
:1006530002BBAF041202B0020544E4FEC297EF13DB
:1006630092A3EFC313FFD2970EBE08F022438E046A
:0F06730075D72075D6D1438E1043AF04D2AF2276
:00000001FF
