:10000000020758C0E0C0D075D000C000C00743A0B0
:10001000E07580FF43A0C053A0DFAF577401A8076D
:10002000088002C333D8FCF58043A0E0744E255706
:10003000F8E62428F8E6F5800557E557B408037577
:1000400057000522E5227002052164C8452170068B
:0F005000F521F522D202D007D000D0D0D0E03277
:100063000200030203AEE86480F8E933E833601169
:100073000460F0ED33EC337009E8FCE9FDEAFEEBD4
:10008300FF220460DED3EB9FEA9EE99DE8C2E78C82
:10009300F0C2F795F0400CE8CCF8E9CDF9EACEFAD6
:1000A300EBCFFB12037985D0F05804700320D5B34E
:1000B300E80470075002B2D50203B892D5EC04608D
:1000C300F7E4CCC0E0C398F8603B94186008400D97
:1000D300D0E0FB020390E4FBFAC9FC8028E830E49B
:1000E30006E4C9FBE4CAFCE830E305E4C9CACBFC77
:1000F300E854076010F8C3E913F9EA13FAEB13FBAA
:10010300EC13FCD8F130F52FC3E49CFCEF9BFFEE1E
:100113009AFEED99FDD0E0FBEF4E4D4C701222DBC1
:10012300030203B5EC2CFCEF33FFEE33FEED33FD9E
:10013300ED30E7EB020390EF2BFFEE3AFEED39FDD6
:10014300D0E0FB50130BBB00030203B8ED13FDEE2D
:1001530013FEEF13FFEC13FC020390EC4D6011E868
:10016300497017ED33EC3304600DE4FCFFFEFD2210
:10017300E933E8330470F80203AE120379580460DC
:1001830009E4CC248150062850090203B82840030F
:100193000203B5C0E0EB4A7044B98006D0E0FB022D
:1001A30003A4EF4E701CBD8008EBFFEAFEE9FD805F
:1001B300EBE98DF0A4FEE5F0020247E9CDF9EAFE92
:1001C300EBFFEF89F0A4FCE5F0CE89F0A42EFFE469
:1001D30035F0CD89F0A42DFEE435F08067EF4E7045
:1001E30005BD80D780C3EF8BF0A4ACF0EE8BF0A4F9
:1001F3002CFCE435F0F8EF8AF0A42CE5F038FCE4AD
:1002030033CB8DF0A42CFCE5F03BF8EE8AF0A42C64
:10021300FCE5F038F8E433CF89F0A42CFCE5F038A2
:10022300CF3400CE89F0A42FFFE5F03EFEE433C9BE
:100233008DF0A42EFEE5F039CD8AF0A42FFFE5F072
:100243003EFEE43DFD33D0E0FB50070BBB000F0245
:1002530003B8EC2CFCEF33FFEE33FEED33FD02036A
:10026300900203B8EC5D046005E8590470030203CF
:10027300AE120379580460F6EC4860F2EC7004FDAA
:10028300FEFF22C860DB2481C85009C39860025076
:10029300060203B59850CAF582E9294B4A7005ABAB
:1002A300820203A475F0007C1A7880C3EF9BEE9A58
:1002B300ED99400DC3EF9BFFEE9AFEED99FDE842E9
:1002C300F0DC23ACF0D0E0FFD0E0FED0E0FDAB8269
:1002D30020E7101BEB60BAEC2CFCEF33FFEE33FE90
:1002E300ED33FD020390E803F830E705C0F075F045
:1002F30000EF2FFFEE33FEED33FD40B830E7C28051
:10030300AA75F020800E75F010800575F0087D0049
:100313007E007F003392D530D503120418EC3340AE
:1003230010EF33FFEE33FEED33FDEC33FCD5F0ED90
:1003330022E5F0247EA2D513CC92E7CDCEFF22EDA9
:10034300D2E7CD33EC3392D524814006E4FFFEFDA2
:10035300FC22FCE4CFCECDCC24E0501174FF80ED21
:10036300C3CC13CCCD13CDCE13CECF13CF0470F0AB
:1003730030D5DE020418E9D2E7C933E833F892D561
:10038300EDD2E7CD33EC33FC5002B2D522EC30E7AB
:10039300100FBF000C0EBE00080DBD00040BEB6078
:1003A30014A2D5EB13FCED92E7FD2274FFFCFDFED6
:1003B300FF22E480F8A2D574FF13FC7D80E480EF74
:1003C300BC000BBE0029EF8DF084FFADF022E4CC1E
:1003D300F875F008EF2FFFEE33FEEC33FCEE9DECE7
:1003E300984005FCEE9DFE0FD5F0E9E4CEFD22ED2D
:1003F300F8F5F0EE8420D21CFEADF075F008EF2F77
:10040300FFED33FD4007985006D5F0F222C398FD67
:100413000FD5F0EA22C3E49FFFE49EFEE49DFDE4D2
:100423009CFC2275B07FC2C4D2C2E5B0540FF50F55
:10043300640F606F7F057E00120DB5E5B0540FF5B4
:100443000F640F605085B00FE50F2489603524FCDD
:10045300704320001DE55A7005755A018037E55A2F
:10046300B40105755A02802DE55A64027027F55AC6
:100473008023300020200304D2038019300316C2E6
:10048300038012200004D200800B300008C20085D4
:10049300262385564AE50F640F6008E5B0540FF52F
:1004A3000F80F275B0BFD2C4C2C2E5B0540FF50FCE
:1004B300640F700302054F7F057E00120DB5E5B092
:1004C300540FF50F640F607685B00FE50F24496074
:1004D3003724FC706930006620031AE556B4020520
:1004E300755603805905560556E556D39409404E73
:1004F3007556028049300346740A2526F526D3949F
:1005030050403B75260A8036200033E55AB4010E6D
:10051300200104D2018027300124C2018020E55A42
:10052300B4021BE52570057525018012E525B4018C
:10053300057525028008E525B40203E4F525E50FDA
:10054300640F6008E5B0540FF50F80F2227F08D2E4
:100553009000000000000000000000000000000008
:100563000000000000000000000000000000000088
:100573000000000000000000000000000000000078
:100583000000000000000000000000000000000068
:100593000000000000000000000000000000000058
:1005A3000000000000000000000000000000000048
:1005B3000000000000C290000000000000000000E6
:1005C3000000000000000000000000000000000028
:1005D3000000000000000000000000000000000018
:1005E3000000000000000000000000000000000008
:1005F30000000000000000000000000000000000F8
:1006030000000000000000000000000000000000E7
:100613000000000000000000000000AE071FEE60B5
:10062300030205522220003AE55A7005534BFE801F
:1006330003434B0143A08053A09F854B80E55AB4ED
:100643000105534BFD8003434B0243A08053A09FFE
:10065300854B80E55AB40205534BFB8008434B049A
:100663008003434B0743A08053A09F854B80200109
:1006730005534BF78003434B0843A08053A09F854A
:100683004B80300110120A99BF0105534BEF8008CC
:10069300434B108003434B1043A08053A09F854BD3
:1006A300807F01120D4BC3EF94B4EE9400400553C9
:1006B3004BDF8003434B2043A08053A09F854B8097
:1006C30022754E16200105754F18800630010375FB
:1006D3004F17755015755115755215D3E54694632B
:1006E300E54594004024AE45AF467C007D6412038B
:1006F300C38F53AE45AF467C007D641203C37E00B7
:100703007F0ACFCDCFCECCCE8020D3E5469409E56A
:100713004594004029E5469463E5459400501F75D0
:100723005315AE45AF467C007D0A1203C38F54AE0A
:1007330045AF467C007D0A1203C38D558014C3E583
:10074300469409E54594005009755315755415856C
:100753004655020A33787FE4F6D8FD75815A0207BD
:100763009F020D6CE493A3F8E493A34003F6800186
:10077300F208DFF48029E493A3F85407240CC8C3D8
:1007830033C4540F4420C8834004F456800146F612
:10079300DFE4800B01020408102040809009C8E4C4
:1007A3007E019360BCA3FF543F30E509541FFEE470
:1007B30093A360010ECF54C025E060A840B8E49332
:1007C300A3FAE493A3F8E493A3C8C582C8CAC58374
:1007D300CAF0A3C8C582C8CAC583CADFE9DEE780F9
:1007E300BE1208651207EFAF05120865D2A100001B
:1007F30000000000000000000000000000000000F6
:1008030000000000000000000000000000000000E5
:1008130000000000000000000000000000000000D5
:10082300D2A0000000000000000000000000000053
:1008330000000000000000000000000000000000B5
:1008430000000000000000000000000000000000A5
:100853000000000030A107C2A0120BF0C322C2A007
:10086300D322E4FEEF30E704D2A18002C2A100004C
:100873000000000000000000000000000000000075
:100883000000000000000000000000000000000065
:100893000000000000000000000000000000000055
:1008A300D2A0EF25E0FF00000000000000000000E0
:1008B3000000000000000000000000000000000035
:1008C3000000000000000000000000000000000025
:1008D3000000000000000000C2A00EBE088622E453
:1008E300FED2A00000000000000000000000000095
:1008F30000000000000000000000000000000000F5
:1009030000000000000000000000000000000000E4
:100913000000000000EF25E0FF30A103430701C200
:10092300A000000000000000000000000000000024
:1009330000000000000000000000000000000000B4
:1009430000000000000000000000000000000000A4
:100953000000000EBE088A22D2A1D2A0000000002F
:100963000000000000000000000000000000000084
:100973000000000000000000000000000000000074
:100983000000000000000000000000000000C2A101
:100993000000000000000000000000000000000054
:1009A3000000000000000000000000000000000044
:1009B3000000000000000000000000000000000034
:1009C3000000C2A022070800141400000000014B1D
:1009D300FF1D28C0F9A4B0999282F8809040792431
:1009E30030191202780010BFFFC78EC6898CFEF73C
:1009F300084E151515151515151501570001590044
:100A030001580001240002450000C102024C00000D
:100A1300C100015A00C103C10101250001560201B1
:100A2300260A014A0201230A0127000221000000CD
:100A3300C3E546940AE545940050047F338053D3BD
:100A4300E5469450E545940040047FFF8044D3E598
:100A5300469450E5459400503CC3E546940AE54569
:100A630094004031AC45AD46E41203097B527AB899
:100A730079B6784012015E7B337A33792B78421250
:100A8300006D7B487AE179FA783F120267120342DC
:100A93008F27120DA022E5232405FFE433FEC3E5CF
:100AA300479FEE6480F87480985039E52324FBF95E
:100AB300E547D399402EE5489FEE6480F87480980B
:100AC3005022E54899401DE5232405FFE433FEC386
:100AD300E5499FEE6480F87480985008E549994091
:100AE300037F01227F0022E4F50F30012B120D0753
:100AF300E508854AF084E5F07033300210C2021233
:100B03000B318E458F467447250FF8A607050FE571
:100B13000FB40319E4F50F22200112120D86BF0151
:100B23000C300209C202120B318E458F4622E4F5C6
:100B33008DF58B120550D28E309103308FFAC28E11
:100B4300308F08C28F754C27754D0F20911ED2919F
:100B5300AF8DEFAD8BFCE41203097B967A43798B5F
:100B6300783C12015E1203428E4C8F4DAE4CAF4D5A
:100B730022E4FDC29300C29700D29300120DCAE48F
:100B8300FFC297EDC313FD30A303430580D2970F34
:100B9300BF08EEC29300C293C29700D29700C2A3CC
:100BA30000D2A300EDC4540F75F00AA4FFED540F57
:100BB3002FFF22E50A75F00A84F54EE50A75F00A5F
:100BC3008485F04F755014E50975F00A84F551E5F5
:100BD3000975F00A8485F052755314E50875F00A17
:100BE30084F554E50875F00A8485F05522C2A1D234
:100BF300A000000000000000000000000000000052
:100C030000000000000000000000000000000000E1
:100C130000000000000000000000000000000000D1
:100C2300000000D2A122200017E55A7003020BB680
:100C3300E55AB401030206C4E55AB40212020C7861
:100C430030000C200303020C9D300303120CC1225D
:100C5300C29300C29700D29300120DCAED75F00A39
:100C630084C454F0FFED75F00A84E5F04FFDFF12E4
:100C73000DCAC29322754E19E5257005754F1B8069
:100C830012E525B40105754F1C8008E525B4020360
:100C9300754F1475501575511522754E1A754F0100
:100CA300755015755115755215755315E55675F033
:100CB3000A84F554E55675F00A8485F05522754E7D
:100CC3001A754F02755015755115755215755315D3
:100CD300E52675F00A84F554E52675F00A8485F057
:100CE3005522E4FC7B80FD7F8E120C53AF03740806
:100CF3002CF8E6FD120C530B0B0CBC08EF7D807F28
:100D03008E020C53E4FC7B81FD7F8E120C53AF03E8
:100D1300120B7474082CF8A6070B0B0CBC08EF7DA0
:100D2300807F8E020C5343A0A053A0BFE4F5804301
:100D3300A08053A09F7580FF43A0C053A0DF7580A0
:100D4300FF43A0E07580FF22AD0712095B7F90127D
:100D530007E4120BF012095B7F911208651207EF8B
:100D63001208E27E00120BF022120D29120DDD1281
:100D73000CE5120D07120426120C29120AEA1206B8
:100D83002880EF8524587F01120D4B8F24E524B46E
:100D9300B408C3955850037F01227F0022AD071288
:100DA300095B7F901208651207EF7F401207E40288
:100DB3000BF0E4FDEDC39FE49E500B7C0C7BA9DBA1
:100DC300FEDCFC0D80EE22E4FEC297EF1392A3EF4C
:100DD300C313FFD2970EBE08F022438E0475D720AB
:0C0DE30075D6D1438E1043AF04D2AF226E
:00000001FF
