:040000000202843242
:10000B000200031203E912031B120452C2A1D2A075
:10001B0000000000000000000000000000000000D5
:10002B0000000000000000000000000000000000C5
:10003B000000000000000000D2A12220B0177F05B5
:10004B0012054820B00CE546D394034003E4F54673
:06005B00054630B0FD2255
:10006300020066C0E0C0F0C083C082C0D075D0007B
:10007300C000C001C002C003C004C005C006C00761
:1000830043A0E07580FF43A0C053A0DFAF4F7401CE
:10009300A807088002C333D8FCF58043A0E0744767
:1000A300254FF8E6242FF8E6F580054FE54FB40811
:1000B30003754F000551E551700205500560E56079
:1000C3007002055F052BE52B7002052AE5586401D4
:1000D3006003020191E551640145506003020191FF
:1000E300E546B4011875A0007580FF75A080AF2E9A
:1000F3007401A807088002C333D8FC801BE546B40B
:10010300021B75A0007580FF75A080AF2E7480A8B8
:1001130007088002C313D8FCF4F580806BE54664BE
:1001230003702FF5A07580FF75A080E52E7005750F
:10013300807E801CE52EB401057580BD8012E52EFE
:10014300B402057580DB8008E52EB403037580E7F0
:100153008036E54664046003020216F5A07580FF4D
:1001630075A080E52E70057580E7801CE52EB4012F
:10017300057580DB8012E52EB402057580BD80080D
:10018300E52EB4030375807E75A000020216E561B7
:10019300B55113E4B5500FF5A07580FF75A08075B8
:1001A30080FFC2A0806DE551641445507065F55021
:1001B300F5510528E52870020527AE27FF7C007D51
:1001C3001412056DC3EF9552EE9C404775270075D9
:1001D3002800E546B4010B052EE52EC394084033F1
:1001E300802EE546B4020B052EE52EC3940840236A
:1001F300801EE546B4030B052EE52EC3940440137D
:10020300800EE546B4040C052EE52EC3940440038A
:10021300752E00E52B64C8452A704BF52AF52B7F14
:10022300031205328F26E526C394405005756102FB
:100233008034E526C39440400BE526948050057531
:1002430061058022E526C39480400BE52694C050C7
:100253000575610A8010E526C394C440097480942F
:10026300815003756113D007D006D005D004D003A5
:10027300D002D001D000D0D0D082D083D0F0D0E053
:1002830032787FE4F6D8FD7581610202CB02057FE7
:10029300E493A3F8E493A34003F68001F208DFF4A8
:1002A3008029E493A3F85407240CC8C333C4540F20
:1002B3004420C8834004F456800146F6DFE4800BF3
:1002C300010204081020408090037DE47E019360C6
:1002D300BCA3FF543F30E509541FFEE493A3600120
:1002E3000ECF54C025E060A840B8E493A3FAE4938A
:1002F300A3F8E493A3C8C582C8CAC583CAF0A3C838
:10030300C582C8CAC583CADFE9DEE780BE1203E936
:1003130012031BAF051203E9D2A100000000000085
:1003230000000000000000000000000000000000CA
:1003330000000000000000000000000000000000BA
:100343000000D2A000000000000000000000000038
:10035300000000000000000000000000000000009A
:1003630000000000000000000000000030A107C2F0
:10037300A0120017C322C2A0D3220145FF162FC02B
:10038300F9A4B0999282F88090407924301912022E
:10039300780010BFFF08471515151515151515011C
:1003A3004F00015901022C000002530000022101F9
:1003B3009002560000C1000125000124B00158013C
:1003C3000250000002270000025F0000022A000022
:1003D300015200012E0001460101610001260001C6
:1003E30023FF0155FF00E4FEEF30E704D2A18002B2
:1003F300C2A1000000000000000000000000000097
:1004030000000000000000000000000000000000E9
:1004130000000000000000000000D2A0EF25E0FF74
:1004230000000000000000000000000000000000C9
:1004330000000000000000000000000000000000B9
:100443000000000000000000C2A00EBE089A22E4D3
:10045300FED2A00000000000000000000000000029
:100463000000000000000000000000000000000089
:100473000000000000000000000000EF25E0FF3056
:10048300A103430701C2A000000000000000000018
:100493000000000000000000000000000000000059
:1004A3000000000000000000000000000000000E3B
:1004B300BE089E22D2A1D2A00000000000000000CE
:1004C3000000000000000000000000000000000029
:1004D3000000000000000000000000000000000019
:1004E300C2A10000000000000000000000000000A6
:1004F30000000000000000000000000000000000F9
:1005030000000000000000000000C2A02243A0A0E1
:1005130053A0BFE4F58043A08053A09F7580FF43A1
:10052300A0C053A0DF7580FF43A0E07580FF22AD1C
:10053300071204B77F901203101200171204B77F3B
:100543009112000E22E4FEEEC39F500B7D0C7CA99A
:10055300DCFEDDFC0E80F022438E0475D72075D6B9
:10056300D1438E1043AF04D2AF22EF8DF0A4A8F095
:10057300CF8CF0A428CE8DF0A42EFE2212051012EB
:0A058300055B85464712004680F82C
:00000001FF
