:100000000201B7C0E0C0D075D000C000C00743A057
:10001000E07580FF43A0C053A0DFAF277401A8079D
:10002000088002C333D8FCF58043A0E0741F252765
:10003000F8E62408F8E6F5800527E527B4080375F7
:100040002700D007D000D0D0D0E032E4FEEEC39F2E
:0E005000500B7D0C7CA9DCFEDDFC0E80F02246
:1000630002000375B07FC2C4D2C2E5B0540FF528B5
:10007300640F60437F0512004BE5B0540FF528640D
:100083000F602685B028E5282489601A24FC6011B6
:1000930024FE6008147012751F01800D7520028004
:1000A300087521038003752204E528640F6008E5C1
:1000B300B0540FF52880F275B0BFD2C4C2C2E5B008
:1000C300540FF528640F60437F0512004BE5B054CD
:1000D3000FF528640F602685B028E5282449601AA7
:1000E30024FC601124FE6008147012751F05800D36
:1000F30075200680087521078003752208E52864AA
:100103000F6008E5B0540FF52880F275B0DFD2C454
:10011300D2C2E5B0540FF528640F60437F05120087
:100123004BE5B0540FF528640F602685B028E52809
:100133002429601A24FC601124FE600814701275CF
:100143002309800DE4F524800875250B80037526AB
:100153000CE528640F6008E5B0540FF52880F275AC
:10016300B0EFD2C4D2C2E5B0540FF528640F604398
:100173007F0512004BE5B0540FF528640F60268508
:10018300B028E5282419601A24FC601124FE6008B5
:10019300147012752301800D7524018008752501E3
:1001A3008003752601E528640F6008E5B0540FF558
:1001B3002880F222787FE4F6D8FD7581280201FEBB
:1001C3000202A0E493A3F8E493A34003F68001F2B0
:1001D30008DFF48029E493A3F85407240CC8C3333D
:1001E300C4540F4420C8834004F456800146F6DF0C
:1001F300E4800B0102040810204080900243E47E57
:10020300019360BCA3FF543F30E509541FFEE49300
:10021300A360010ECF54C025E060A840B8E493A3C7
:10022300FAE493A3F8E493A3C8C582C8CAC583CAF2
:10023300F0A3C8C582C8CAC583CADFE9DEE780BEAA
:10024300011EFF1608C0F9A4B0999282F88090406D
:10025300792430191202780010BFFF081F00010231
:1002630003040506070127000043A0A053A0BFE431
:10027300F58043A08053A09F7580FF43A0C053A087
:10028300DF7580FF43A0E07580FF22438E0475D79E
:100293002075D6D1438E1043AF04D2AF2212026C25
:0802A30012028E12006680FBBE
:00000001FF
