:10000000020568C0E0C0D075D000C000C00743A0A2
:10001000E07580FF43A0C053A0DFAF0E7401A807B6
:10002000088002C333D8FCF58043A0E07428250E75
:10003000F8E6240FF8E6F580050EE50EB408037522
:100040000E00E530C3950A5004050C8003750C00C2
:09005000D007D000D0D0D0E0327E
:10006300020003EC4D6011E8497017ED33EC3304E3
:10007300600DE4FCFFFEFD22E933E8330470F8026F
:1000830002161201E158046009E4CC2481500628C9
:10009300500902022028400302021DC0E0EB4A700F
:1000A30044B98006D0E0FB02020CEF4E701CBD8009
:1000B30008EBFFEAFEE9FD80EBE98DF0A4FEE5F035
:1000C30002014FE9CDF9EAFEEBFFEF89F0A4FCE56D
:1000D300F0CE89F0A42EFFE435F0CD89F0A42DFEF7
:1000E300E435F08067EF4E7005BD80D780C3EF8B9A
:1000F300F0A4ACF0EE8BF0A42CFCE435F0F8EF8A1E
:10010300F0A42CE5F038FCE433CB8DF0A42CFCE513
:10011300F03BF8EE8AF0A42CFCE5F038F8E433CF9A
:1001230089F0A42CFCE5F038CF3400CE89F0A42F5D
:10013300FFE5F03EFEE433C98DF0A42EFEE5F03971
:10014300CD8AF0A42FFFE5F03EFEE43DFD33D0E081
:10015300FB50070BBB000F020220EC2CFCEF33FF1C
:10016300EE33FEED33FD0201F875F020800E75F0DD
:1001730010800575F0087D007E007F003392D53036
:10018300D503120280EC334010EF33FFEE33FEED64
:1001930033FDEC33FCD5F0ED22E5F0247EA2D5133C
:1001A300CC92E7CDCEFF22EDD2E7CD33EC3392D51F
:1001B30024814006E4FFFEFDFC22FCE4CFCECDCC3F
:1001C30024E0501174FF80EDC3CC13CCCD13CDCEFE
:1001D30013CECF13CF0470F030D5DE020280E9D204
:1001E300E7C933E833F892D5EDD2E7CD33EC33FCEE
:1001F3005002B2D522EC30E7100FBF000C0EBE0048
:10020300080DBD00040BEB6014A2D5EB13FCED92BB
:10021300E7FD2274FFFCFDFEFF22E480F8A2D57403
:10022300FF13FC7D80E480EFBC000BBE0029EF8D43
:10023300F084FFADF022E4CCF875F008EF2FFFEE69
:1002430033FEEC33FCEE9DEC984005FCEE9DFE0F77
:10025300D5F0E9E4CEFD22EDF8F5F0EE8420D21CD2
:10026300FEADF075F008EF2FFFED33FD400798501A
:1002730006D5F0F222C398FD0FD5F0EA22C3E49F1E
:10028300FFE49EFEE49DFDE49CFC2275B07FC2C4A6
:10029300D2C2E5B0540FF533640F60377F051208FF
:1002A300AAE5B0540FF533640F601A85B033E53314
:1002B3002489600F24FC600B24FE6007147006057C
:1002C3000880020508E533640F6008E5B0540FF5B4
:1002D3003380F275B0BFD2C4C2C2E5B0540FF53358
:1002E300640F603F7F051208AAE5B0540FF533642D
:1002F3000F602285B033E5332449601724FC600F77
:1003030024FE600714700E0508800A0508800605A0
:100313000880020508E533640F6008E5B0540FF563
:100323003380F275B0DFD2C4D2C2E5B0540FF533D7
:10033300640F60687F051208AAE5B0540FF53364B3
:100343000F604B85B033E5332429602024FC600F14
:1003530024FE6007147037050880330508802F7565
:100363000801E50B64027026F5328022750801E569
:100373000BC394034005E4F50B8002050BE50BB4B6
:10038300030CE50A75F00AA4FDE4FF120895E533B2
:10039300640F6008E5B0540FF53380F275B0EFC217
:1003A300C4D2C2E5B0540FF533640F606C7F0512FD
:1003B30008AAE5B0540FF533640F604F85B033E5F9
:1003C300332419602A24FC600F24FE600714703B59
:1003D3000508803705088033750801E50B64017053
:1003E3002AE50AD394005003750AF474CE80187575
:1003F3000801E50BB40114D3E50A94F474809481E5
:100403004003E4F50A7432250AF50AE533640F6004
:1004130008E5B0540FF53380F2221208311208BDFB
:1004230012087F7F031208538F09AC09E412017687
:100433007B487AE179FA783F1200661201AA8F307D
:10044300E4FF1208698F0A12028EE508C394044080
:100453000875A0807580FB800675A0807580FFC33A
:10046300E50C948874809493400875A0807580FE91
:10047300800675A0807580FFE50B702B75281675B7
:100483002915752A15752B15752C15E53075F0642E
:1004930084240AF52DE53075F06484E5F075F00ADF
:1004A30084F52EE530802FE50B6401703375281732
:1004B300752915752A15752B15752C15E50A75F013
:1004C3006484240AF52DE50A75F06484E5F075F07B
:1004D3000A84F52EE50A75F00A8485F02F020423B9
:1004E300E50B64026003020423752818752915754A
:1004F3002A15752B15752C15D3E53294E774809462
:10050300835018E53294634012E53275F06484F544
:100513002DE53275F06484E5F08012E532D39463FF
:10052300501CE53294094016752D15E53275F00A15
:1005330084F52EE53275F00A8485F02F8010E532BC
:10054300D394095009752D15752E1585322FE53273
:1005530030E00975A0807580FD02042375A08075C5
:1005630080FF020423787FE4F6D8FD75813302050A
:10057300AF02041DE493A3F8E493A34003F68001C0
:10058300F208DFF48029E493A3F85407240CC8C3CA
:1005930033C4540F4420C8834004F456800146F604
:1005A300DFE4800B01020408102040809007B0E4D0
:1005B3007E019360BCA3FF543F30E509541FFEE462
:1005C30093A360010ECF54C025E060A840B8E49324
:1005D300A3FAE493A3F8E493A3C8C582C8CAC58366
:1005E300CAF0A3C8C582C8CAC583CADFE9DEE780EB
:1005F300BE12066B1205FFAF0512066BD2A10000F7
:1006030000000000000000000000000000000000E7
:1006130000000000000000000000000000000000D7
:100623000000000000000000000000D2A000000055
:1006330000000000000000000000000000000000B7
:1006430000000000000000000000000000000000A7
:100653000000000000000000000030A107C2A0124B
:1006630007FDC322C2A0D322E4FEEF30E704D2A1E8
:100673008002C2A100000000000000000000000092
:100683000000000000000000000000000000000067
:100693000000000000000000000000000000000057
:1006A30000D2A0EF25E0FF000000000000000000E2
:1006B3000000000000000000000000000000000037
:1006C3000000000000000000000000000000000027
:1006D30000000000C2A00EBE089022E4FED2A000DB
:1006E3000000000000000000000000000000000007
:1006F30000000000000000000000000000000000F7
:10070300000000000000000000000000EF25E0FFF3
:1007130030A103430701C2A0000000000000000055
:1007230000000000000000000000000000000000C6
:1007330000000000000000000000000000000000B6
:1007430000000000000EBE089422D2A1D2A0000037
:100753000000000000000000000000000000000096
:100763000000000000000000000000000000000086
:100773000000000000000000000000C2A100000013
:100783000000000000000000000000000000000066
:100793000000000000000000000000000000000056
:1007A30000000000000000000000C2A022190FC0DA
:1007B300F9A4B0999282F880904070203019120207
:1007C300780010BFFFC18CAB08281515151515153A
:1007D3001515010E00010900010A00013000010D89
:1007E30000013100010B00013200010800010C007F
:1007F3000012066B1205FF1206DEC2A1D2A0000092
:1008030000000000000000000000000000000000E5
:1008130000000000000000000000000000000000D5
:100823000000000000000000000000D2A12243A04D
:10083300A053A0BFE4F58043A08053A09F7580FF21
:1008430043A0C053A0DF7580FF43A0E07580FF2263
:10085300AD0712074D7F901205F41207FD12074DE5
:100863007F911207F422AD0712074D7FA01205F402
:100873001207FD12074D7FA11207F42285310DE502
:100883000975F064A4FFAEF07C007D3212022B8F59
:100893003122AC0712074D7FA012066B1205FFAF82
:1008A300041205F40207FDE4FEEEC39F500B7D0C1A
:1008B3007CA9DCFEDDFC0E80F022438E0475D7207C
:0C08C30075D6D1438E1043AF04D2AF2293
:00000001FF
