:10024F001826C0F9A4B0999282F880904079243092
:10025F00191202780010BFFFC68C083E1515151530
:10026F0015151515014600C101C18001210001239B
:0A027F001E01221401251E012414A3
:1001A20012033012046312028A8F211200662001A8
:1001B2001E753E16753F157540157541157542152C
:1001C200754315E52175F00A84F544E521802A304E
:1001D200012E753E17753F15754015E52375F00A1A
:1001E20084F541E52375F00A8485F042754315E5EF
:1001F2002275F00A84F544E52275F00A8485F045FB
:0502020012000380A1C1
:1000660020B0311203E220B02330012020000EE53B
:1000760023D3940050037523631523800F30000C9F
:10008600E522D394005003752263152230B0030293
:10009600011580F820B12E1203E220B12330012091
:1000A60020000EE523C394644003E4F52305238072
:1000B6000F30000CE522C394644003E4F5220522C8
:1000C60020B14C80FB20B21A1203E220B20F30019D
:1000D6000C200004D2008005300002C20020B22F9E
:1000E60080FB20B32A1203E220B321200104D201AF
:1000F600801A300117E523C39522400885232585FC
:1001060022248006852523852422C20130B3FD22C0
:10000300E521D39523400A75A0807580FE7FCC80BF
:1000130027E521C395224011E521D39523500A7585
:10002300A0807580FD7F99800FE521C39522500B39
:1000330075A0807580FB7F66120426E523C3952295
:09004300500675A0807580F722BB
:10046300438E0475D72075D6D1438E1043AF04D283
:02047300AF22B6
:1003300043A0A053A0BFE4F58043A08053A09F75C5
:1003400080FF43A0C053A0DF7580FF43A0E075800D
:02035000FF228A
:030063000202078F
:10020700C0E0C0D075D000C000C00743A0E0758033
:10021700FF43A0C053A0DFAF467401A807088002C0
:10022700C333D8FCF58043A0E0743E2546F8E624A6
:1002370026F8E6F5800546E546B40803754600D07E
:0802470007D000D0D0D0E03256
:0403E2007F057E0015
:1003E600E4FDEDC39FE49E500B7C0C7BA9DBFEDC99
:0403F600FC0D80EE8C
:0103FA0022E0
:10045000D2A1D2A00000000000C2A1000000000054
:03046000C2A02215
:0904110012030D1202CA1203715C
:0C041A00C2A1D2A00000000000D2A1226C
:10035200300204C2A18002D2A10000000000D2A09B
:0F0362000000000000C2A0D2A100000000002295
:0B02BF0012030D1202CAAF0512030D5E
:1002CA00D2A10000000000D2A0000000000030A16E
:0C02DA0007C2A012041AC322C2A0D32243
:10030D00E4FEEF30E704D2A18002C2A1000000009C
:10031D0000D2A0EF25E0FF0000000000C2A00EBE3D
:02032D0008E0E6
:01032F0022AB
:10037100E4FED2A00000000000EF25E0FF30A10361
:0E038100430701C2A000000000000EBE08E409
:01038F00224B
:02004C00AD07FE
:10004E001204507F901202BF12041A1204507F91B4
:03005E0012041178
:01006100227C
:10042600AD071204507F9012030D1202CA7F4012CC
:0504360002BF02041AE0
:0203FB00AD074C
:1003FD001204507FA01202BF12041A1204507FA1E2
:03040D00120411C5
:0104100022C9
:10043B00AC071204507FA012030D1202CAAF0412B4
:05044B0002BF02041ACB
:0403AE007F057E0049
:1003B200EF1FAA0670011E4A600BE4FDEDC394080C
:0503C20050EE0D80F774
:0103C7002213
:02039000A907BB
:10039200E4FBC294E91392941203AED294E9C3131C
:0C03A200F90BBB08ED7F057E000203B2E2
:1003C800E4FBC294ECC313FCD2943094034304803E
:0903D8001203AE0BBB08EBAF04ED
:0103E10022F9
:1002E600C203D2947F0C7E001203B2C2947F507E6A
:1002F600001203B2D2947F0A7E001203B2A2949235
:06030600031203AEA20386
:01030C0022CE
:10028A001202E67FCC1203907F441203907F147E01
:10029A00001203B21202E67FCC1203907FBE120351
:1002AA00901203C8A9071203C8EFC454F0FFE9C4A7
:0402BA00540F4FFF8F
:0102BE00221D
:03000000020116E4
:0C011600787FE4F6D8FD75814602015D9B
:100122000201A2E493A3F8E493A34003F68001F250
:1001320008DFF48029E493A3F85407240CC8C333DE
:10014200C4540F4420C8834004F456800146F6DFAD
:10015200E4800B010204081020408090024FE47EEC
:10016200019360BCA3FF543F30E509541FFEE493A2
:10017200A360010ECF54C025E060A840B8E493A369
:10018200FAE493A3F8E493A3C8C582C8CAC583CA94
:10019200F0A3C8C582C8CAC583CADFE9DEE780BE4C
:010289000074
:00000001FF
