:1005CF003930393039300D0A006572726F720D0A89
:0105DF00001B
:1005E000011D0006173132330D0A00C109011E003A
:0E05F10012057212000312004D1204DC80FB92
:1004DC0030096CC209E4F51DE518B473047F018082
:1004EC00027F00E517B473047E0180027E00EE5F8C
:1004FC00FFE519B473047E0180027E00EE5F601F7D
:10050C00751E037525FF7526057527CF7B007A00B0
:10051C0079081200C27B007A0079087D08801A7570
:10052C0025FF7526057527D87B007A0079081200FF
:10053C00C27B007A0079087D0712054CE4F51E2277
:10000300759850438E40538EFE53890F758BE87558
:0B0013008DFFC2ABD28ED2ACD2AF2268
:030023000205943F
:10059400C0E0C0D075D000C00030980E7417251E7E
:1005A400F8A699051E751D01C298D000D0D0D0E0E0
:0105B4003214
:06054C008B228A238924A2
:10055200E4FFEFC39D5018AB22AA23A9248F827512
:0F05620083001203C2F5993099FDC2990F80E30F
:010571002267
:10004D00438E0475D7CD75D6D4438E1043AF04D2ED
:02005D00AF22D0
:030063000205B5DE
:1005B500C0E0C0D0E51DC39401400A051DE51D94AA
:0A05C500144002D209D0D0D0E03279
:1005720043A0A053A0BFE4F58043A08053A09F7581
:1005820080FF43A0C053A0DF7580FF43A0E07580C9
:02059200FF2246
:03000000020450A7
:0C045000787FE4F6D8FD75813502049732
:1003C200BB010CE58229F582E5833AF583E02250F0
:1003D20006E92582F8E622BBFE06E92582F8E2223A
:0D03E200E58229F582E5833AF583E4932254
:10006600E5312425F8E60531227822300702782585
:10007600E475F00112041A0203EF2000EB7F2ED282
:10008600008018EF540F2490D43440D4FF30040B72
:10009600EF24BFB41A0050032461FFE53260021555
:1000A600320535E5357002053430070D7822E475E2
:1000B600F00112041AEF0204080200267403D207A4
:1000C6008003E4C207F5318B228A238924E4F532C2
:1000D600F534F535E53260077F201200A180F5750D
:1000E60033FFC201C200C202C203C205C206C20871
:1000F60012006FFF700D3007057F001200B2AF359A
:10010600AE3422B4255FC2D5C20412006FFF24D0DC
:10011600B40A00501A75F00A783230D50508B6FFD1
:100126000106C6A426F620D5047002D20380D9247F
:10013600CFB41A00EF5004C2E5D2040202B2D201D3
:1001460080C6D20080C0D20280BCD2D580BAD20589
:1001560080B47F201200A12002077401B53200404E
:10016600F1120066FF1200A10200DAD208D2068060
:1001760095120066FB120066FA120066F94A4B7089
:100186000679837A037BFF20022EE532602A7E0001
:100196008E827583001203C260060EEE653370F020
:1001A600C2D5EBC0E0EAC0E0E9C0E0EE1202F9D049
:1001B600E0F9D0E0FAD0E0FB1203EFFF60AAEBC053
:1001C600E0EAC0E0E9C0E01200A1D0E02401F9D0E5
:1001D600E03400FAD0E0FBE5330460DCD533D980A7
:1001E600877BFF7A0279F5D202809C7910800279AA
:1001F60008C206C2088008D2D5790A8004790AC2E4
:10020600D5E533047002F533E4FAFDFEFF1200660D
:10021600FC7B08200113120066FD7B1030000A12D9
:100226000066FE120066FF7B20EC3382D592D55025
:1002360013C3E43000069FFFE49EFEE42001039D05
:10024600FDE49CFCE4CBF8C201EC700CCFCECDCC27
:10025600E824F8F870F38017C3EF33FFEE33FEEDB2
:1002660033FDEC33FCEB33FB994002FB0FD8E9EB93
:10027600300105F8D0E0C448B201C0E00AEC4D4EAA
:100286004F78207B0070C2EAB5330040BCC0E01254
:1002960002FBD0F0D0E0200104C4C0E0C4B201C02B
:1002A600F012008AD0F0D5F0EB0200DA12042A012F
:1002B600775301F15801484C01444201F54F01FDC5
:0F02C6004401FD49015D4302035501E74601E78D
:1002D5004501E74703A350014C2D01502E01732B17
:1002E500015423017120038C2A010C480000016B85
:1002F5003F3F3F00790AA2D5200314300509B91004
:10030500020404B9080104A2D52006025001042004
:1003150002689202B532005034C0E07F20300319E4
:100325007F30A20272067205500F120352C202C23A
:1003350006C205C2087F30800F300503E9C0E01210
:1003450000A1300503D0E0F9D0E0B532CC30051777
:100355007F30B9100C1200A17F583004077F7880D8
:1003650003B908031200A13002057F2D0200A17F09
:10037500202008F87F2B2006F322920280CF286EDA
:10038500756C6C2900D2011200663001F8C2017843
:100395003230D50108F602010C2D504349581200A0
:1003A500662403B405004001E490039E9312009275
:0D03B500743A120092D2037532040201F175
:10045C000205F1E493A3F8E493A34003F68001F2C0
:10046C0008DFF48029E493A3F85407240CC8C333A1
:10047C00C4540F4420C8834004F456800146F6DF70
:10048C00E4800B01020408102040809005E0E47E1B
:10049C00019360BCA3FF543F30E509541FFEE49365
:1004AC00A360010ECF54C025E060A840B8E493A32C
:1004BC00FAE493A3F8E493A3C8C582C8CAC583CA57
:1004CC00F0A3C8C582C8CAC583CADFE9DEE780BE0F
:0105F000000A
:1003EF00BB010689828A83E0225002E722BBFE020C
:0903FF00E32289828A83E493223F
:10040800BB010689828A83F0225002F722BBFE01D3
:02041800F322CD
:10041A00FAE6FB0808E6F925F0F618E6CA3AF622E3
:10042A00D083D082F8E4937012740193700DA3A361
:10043A0093F8740193F5828883E473740293686075
:06044A00EFA3A3A380DF75
:10002600EFB40A07740D120031740A309811A899BA
:10003600B8130CC2983098FDA899C298B811F6303A
:0700460099FDC299F5992212
:00000001FF
