:10000000020066C0E0C0D075D000C000C00743A0A9
:10001000E07580FF43A0C053A0DFAF117401A807B3
:10002000088002C333D8FCF58043A0E0740A251190
:10003000F8E62408F8E6F5800511E511B408037523
:100040001100D007D000D0D0D0E0320109FF010864
:0F005000C0070A01020304050607011100002280
:10006300020003787FE4F6D8FD7581110200AD022A
:1000730001FEE493A3F8E493A34003F68001F2089E
:10008300DFF48029E493A3F85407240CC8C333C4D2
:10009300540F4420C8834004F456800146F6DFE43D
:1000A300800B010204081020408090004BE47E0185
:1000B3009360BCA3FF543F30E509541FFEE493A3B0
:1000C30060010ECF54C025E060A840B8E493A3FAC2
:1000D300E493A3F8E493A3C8C582C8CAC583CAF04E
:1000E300A3C8C582C8CAC583CADFE9DEE780BEC22A
:1000F300C4D2C275B07F20C41520B0121201D32020
:10010300C40620B003750A0120C40330B0FAD2C478
:10011300C2C275B0BF20C21520B0121201D320C2D3
:100123000620B003750B0120C20330B0FAD2C4D24B
:10013300C275B0DF20B51520B0121201D320B50669
:1001430020B003750C0120B50330B0FAD2C4D2C27B
:1001530075B0EF20B41520B0121201D320B40620DD
:10016300B003750D0120B40330B0FA2220B00E1293
:1001730001D320B003750A0120B03380FB20B10EF8
:100183001201D320B103750A0220B12280FB20B2F1
:100193000E1201D320B203750A0320B21180FB2093
:1001A300B30C1201D320B303750A0430B3FD224309
:1001B300A0A053A0BFE4F58043A08053A09FF58087
:1001C30043A0C053A0DF7580FF43A0E07580FF22EA
:1001D3007F057E00E4FDEDC39FE49E500B7C0C7B0A
:1001E300A9DBFEDCFC0D80EE22438E0475D720755F
:1001F300D6D1438E1043AF04D2AF221201B2120103
:0C020300EC12016F1200F212005E80F598
:00000001FF
